DDC0402  918212240962005196190143874545    874092010719240962190701125920601119070190072000000007291093009KALSI                  DEHRADUN     UKIN810143     190701356000000001000000000000001000000000000000000000356000000001000000000000000000000000000000000000000001000000000
DDC0402  918212240171006070936161248106    UNI000010719240171190701125825601119070190086000000008691093014MAIN MARKET RANIPOKHRI DEHRADUN     UKIN810143     190701356000000000500000000000000500000000000000000000356000000000500000000000000000000000000000000000000001000000000
DDC0402  918211176879006081711873000211    176879010719176879190701114356601119070190073000000007391093011NEHRU COLONY           DEHRADUN     UKIN810143     190701356000000001000000000000001000000000000000000000356000000001000000000000000000000000000000000000000001000000000
DDC0401  918211175712045103720322798057          010719175712190701114234601119070190083000000008391093013DCBLTD COURT2 COM D DUNDEHRADUN     UKIN810143     190701356000000000500000000000000000000000000000000000356000000000000000000000000000000000000000000000000001000000000
DDC0402  918211177530006074310161454955    419792010719177530190701114441601119070190072000000007291093009KALSI                  DEHRADUN     UKIN810143     190701356000000000050000000000000050000000000000000000356000000000050000000000000000000000000000000000000001000000000
DDC0401  918211174879045103720322798057          010719174879190701114138601119070190083000000008391093013DCBLTD COURT2 COM D DUNDEHRADUN     UKIN810143     190701356000000000500000000000000000000000000000000000356000000000000000000000000000000000000000000000000001000000000
DDC0402  918212192222006521850565006579    132279010719192222190701120111601119070190098000000009891093005RISHIKESH              DEHRADUN     UKIN810143     190701356000000000100000000000000100000000000000000000356000000000100000000000000000000000000000000000000001000000000
DDC0402  918212239075006073562185898143    239098010719239075190701125706601119070190086000000008691093016JOLLY GRANT BHANIAWALA DEHRADUN     UKIN810143     190701356000000001000000000000001000000000000000000000356000000001000000000000000000000000000000000000000001000000000
DDC0501  918212239594005196190143874545    157167010719239594190701125743601119070190072000000007291093009KALSI                  DEHRADUN     UKIN810143     190701356000000000000000000000000000000000000000000000356000000000000000000000000000000000000000000000000001000000000
DDC0402  918212235713006075320316180370    673213010719235713190701125303601119070190098000000009891093004MAIN BAZAR VIKAS NAGAR DEHRADUN     UKIN810143     190701356000000000100000000000000100000000000000000000356000000000100000000000000000000000000000000000000001000000000
DDC0402  918212237847285211120011169430    754261010719237847190701125536601119070190072000000007291093006RAIPUR                 DEHRADUN     UKIN810143     190701356000000000050000000000000000000000000000000000356000000000000000000000000000000000000000000000000001000000000
DDC0402  918212236598006080320309742346    236598010719236598190701125407601119070190083000000008391093013DCBLTD COURT2 COM D DUNDEHRADUN     UKIN810143     190701356000000000050000000000000050000000000000000000356000000000050000000000000000000000000000000000000001000000000
DDC0700  918211168414006522350005652024    021758010719168414190701113411601119070190086000000008691093015NEAR HANUMAN RAIWALA   DEHRADUN     UKIN810143     190701356000000000000000000000000000000000000000000000356000000000000000000000000000000000000000000000000001000000000
DDC0402  918211173833004592166534001826    263326010719173833190701114026601119070190098000000009891093005RISHIKESH              DEHRADUN     UKIN810143     190701356000000000050000000000000050000000000000000000356000000000050000000000000000000000000000000000000001000000000
DDC0401  918211172612005126522008646359    UNI000010719172612190701113905601119070190098000000009891093005RISHIKESH              DEHRADUN     UKIN810143     190701356000000000050000000000000050000000000000000000356000000000050000000000000000000000000000000000000001000000000
DDC0700  918211167885004591150260328679    484520010719167885190701113335601119070190086000000008691093015NEAR HANUMAN RAIWALA   DEHRADUN     UKIN810143     190701356000000000000000000000000000000000000000000000356000000000000000000000000000000000000000000000000001000000000
DDC0401  918211178134005103720322798057    447031010719178134190701114521601119070190083000000008391093013DCBLTD COURT2 COM D DUNDEHRADUN     UKIN810143     190701356000000000500000000000000500000000000000000000356000000000500000000000000000000000000000000000000001000000000
DDC0502  918212213422396522600002033515          010719213422190701122555601119070190098000000009891093005RISHIKESH              DEHRADUN     UKIN810143     190701356000000000000000000000000000000000000000000000356000000000000000000000000000000000000000000000000001000000000
DDC0402  918212233261006074310132743353    576042010719233261190701125000601119070190098000000009891093005RISHIKESH              DEHRADUN     UKIN810143     190701356000000000020000000000000020000000000000000000356000000000020000000000000000000000000000000000000001000000000
DDC0402  918212233603006070936142352506    UNI000010719233603190701125025601119070190098000000009891093004MAIN BAZAR VIKAS NAGAR DEHRADUN     UKIN810143     190701356000000000100000000000000100000000000000000000356000000000100000000000000000000000000000000000000001000000000
DDC0502  918212199743004591150107194375    558923010719199743190701120952601119070190086000000008691093016JOLLY GRANT BHANIAWALA DEHRADUN     UKIN810143     190701356000000000000000000000000000000000000000000000356000000000000000000000000000000000000000000000000001000000000
DDC0402  918212218341006070936101012893    UNI000010719218341190701123152601119070190098000000009891093005RISHIKESH              DEHRADUN     UKIN810143     190701356000000000280000000000000280000000000000000000356000000000280000000000000000000000000000000000000001000000000
DDC0402  918212229787004591150315931071    441972010719229787190701124549601119070190086000000008691093016JOLLY GRANT BHANIAWALA DEHRADUN     UKIN810143     190701356000000000700000000000000700000000000000000000356000000000700000000000000000000000000000000000000001000000000
DDC0402  918212230604005419190205032629    707420010719230604190701124645601119070190083000000008391093013DCBLTD COURT2 COM D DUNDEHRADUN     UKIN810143     190701356000000000050000000000000050000000000000000000356000000000050000000000000000000000000000000000000001000000000
DDC0501  918212223370004592000025288537    559528010719223370190701123757601119070190072000000007291093006RAIPUR                 DEHRADUN     UKIN810143     190701356000000000000000000000000000000000000000000000356000000000000000000000000000000000000000000000000001000000000
DDC0401  918212223306004505020022857650    015268010719223306190701123754601119070190073000000007391093011NEHRU COLONY           DEHRADUN     UKIN810143     190701356000000001000000000000001000000000000000000000356000000001000000000000000000000000000000000000000001000000000
DDC0401  918211156474146521661000175535          010719156474190701111958601119070190073000000007391093010CHAKRATA ROAD          SAHASPUR     UKIN810143     190701356000000001000000000000000000000000000000000000356000000000000000000000000000000000000000000000000001000000000
DDC0402  918211157584004029855055411926    112113010719157584190701112113601119070190073000000007391093010CHAKRATA ROAD          SAHASPUR     UKIN810143     190701356000000000200000000000000200000000000000000000356000000000200000000000000000000000000000000000000001000000000
DDC0502  918211158891004592000085894182    527664010719158891190701112246601119070190083000000008391093013DCBLTD COURT2 COM D DUNDEHRADUN     UKIN810143     190701356000000000000000000000000000000000000000000000356000000000000000000000000000000000000000000000000001000000000
DDC0402  918211162589046071977000763045          010719162589190701112713601119070190073000000007391093010CHAKRATA ROAD          SAHASPUR     UKIN810143     190701356000000000500000000000000000000000000000000000356000000000000000000000000000000000000000000000000001000000000
DDC0402  918211163439005596010151063565    867562010719163439190701112813601119070190083000000008391093013DCBLTD COURT2 COM D DUNDEHRADUN     UKIN810143     190701356000000001000000000000001000000000000000000000356000000001000000000000000000000000000000000000000001000000000
DDC0502  918211161808006079091209010208    112617010719161808190701112617601119070190083000000008391093013DCBLTD COURT2 COM D DUNDEHRADUN     UKIN810143     190701356000000000000000000000000000000000000000000000356000000000000000000000000000000000000000000000000001000000000
DDC0402  918211161809006070936161248965    UNI000010719161809190701112617601119070190098000000009891093005RISHIKESH              DEHRADUN     UKIN810143     190701356000000000500000000000000500000000000000000000356000000000500000000000000000000000000000000000000001000000000
DDC0402  918211162706005126522016352453    UNI000010719162706190701112722601119070190098000000009891093005RISHIKESH              DEHRADUN     UKIN810143     190701356000000000050000000000000050000000000000000000356000000000050000000000000000000000000000000000000001000000000
DDC0402  918211159694004592000085894182    720275010719159694190701112346601119070190083000000008391093013DCBLTD COURT2 COM D DUNDEHRADUN     UKIN810143     190701356000000000150000000000000150000000000000000000356000000000150000000000000000000000000000000000000001000000000
DDC0402  918211163650006071977000763045    444151010719163650190701112830601119070190073000000007391093010CHAKRATA ROAD          SAHASPUR     UKIN810143     190701356000000000500000000000000500000000000000000000356000000000500000000000000000000000000000000000000001000000000
DDC0402  918211161515005103720323448082    791299010719161515190701112556601119070190086000000008691093016JOLLY GRANT BHANIAWALA DEHRADUN     UKIN810143     190701356000000000500000000000000500000000000000000000356000000000500000000000000000000000000000000000000001000000000
DDC0502  918211161118046081712835008805          010719161118190701112529601119070190083000000008391093013DCBLTD COURT2 COM D DUNDEHRADUN     UKIN810143     190701356000000000000000000000000000000000000000000000356000000000000000000000000000000000000000000000000001000000000
DDC0402  918211159489004987920404010918    476550010719159489190701112332601119070190098000000009891093005RISHIKESH              DEHRADUN     UKIN810143     190701356000000000200000000000000200000000000000000000356000000000200000000000000000000000000000000000000001000000000
DDC0402  918211165483005596010122220070    953143010719165483190701113042601119070190083000000008391093013DCBLTD COURT2 COM D DUNDEHRADUN     UKIN810143     190701356000000000200000000000000200000000000000000000356000000000200000000000000000000000000000000000000001000000000
DDC0502  918211164890006081712835008805    164890010719164890190701113001601119070190083000000008391093013DCBLTD COURT2 COM D DUNDEHRADUN     UKIN810143     190701356000000000000000000000000000000000000000000000356000000000000000000000000000000000000000000000000001000000000
DDC0401  918211154933006521661000175535    499504010719154933190701111803601119070190073000000007391093010CHAKRATA ROAD          SAHASPUR     UKIN810143     190701356000000001000000000000001000000000000000000000356000000001000000000000000000000000000000000000000001000000000
DDC0402  918211155219006070936194204860    UNI000010719155219190701111824601119070190083000000008391093013DCBLTD COURT2 COM D DUNDEHRADUN     UKIN810143     190701356000000000100000000000000100000000000000000000356000000000100000000000000000000000000000000000000001000000000
DDC0401  918211155654006521661000175535    520098010719155654190701111856601119070190073000000007391093010CHAKRATA ROAD          SAHASPUR     UKIN810143     190701356000000001000000000000001000000000000000000000356000000001000000000000000000000000000000000000000001000000000
DDC0502  918211186346006071970118007199    444379010719186346190701115430601119070190073000000007391093011NEHRU COLONY           DEHRADUN     UKIN810143     190701356000000000000000000000000000000000000000000000356000000000000000000000000000000000000000000000000001000000000
DDC0403  918210137625006069980062154594    137625010719137625190701105616601119070190098000000009891093004MAIN BAZAR VIKAS NAGAR DEHRADUN     UKIN810143     190701356000000001000000000000001000000000000000000000356000000001000000000000000000000000000000000000000001000000000
DDC0402  918210136982204902239006149657          010719136982190701105525601119070190098000000009891093005RISHIKESH              DEHRADUN     UKIN810143     190701356000000000500000000000000000000000000000000000356000000000000000000000000000000000000000000000000001000000000
DDC0402  918210136277006081200100754972    136277010719136277190701105428601119070190072000000007291093009KALSI                  DEHRADUN     UKIN810143     190701356000000000100000000000000100000000000000000000356000000000100000000000000000000000000000000000000001000000000
DDC0402  918210139277006074310120368387    866737010719139277190701105822601119070190098000000009891093005RISHIKESH              DEHRADUN     UKIN810143     190701356000000001000000000000001000000000000000000000356000000001000000000000000000000000000000000000000001000000000
DDC0402  918210138021006074310120368387    813675010719138021190701105647601119070190098000000009891093005RISHIKESH              DEHRADUN     UKIN810143     190701356000000001000000000000001000000000000000000000356000000001000000000000000000000000000000000000000001000000000
DDC0401  918210140460765103720490528617    918079010719140460190701105949601119070190098000000009891093005RISHIKESH              DEHRADUN     UKIN810143     190701356000000000100000000000000000000000000000000000356000000000000000000000000000000000000000000000000001000000000
DDC0402  918211153224006070936198941038    UNI000010719153224190701111557601119070190098000000009891093005RISHIKESH              DEHRADUN     UKIN810143     190701356000000001000000000000001000000000000000000000356000000001000000000000000000000000000000000000000001000000000
DDC0402  918211153635146075320592175896          010719153635190701111625601119070190072000000007291093009KALSI                  DEHRADUN     UKIN810143     190701356000000000200000000000000000000000000000000000356000000000000000000000000000000000000000000000000001000000000
DDC0402  918211182479006070936138708893    UNI000010719182479190701115012601119070190098000000009891093005RISHIKESH              DEHRADUN     UKIN810143     190701356000000001000000000000001000000000000000000000356000000001000000000000000000000000000000000000000001000000000
DDC0502  918211151802005103728000041062    294298010719151802190701111409601119070190098000000009891093005RISHIKESH              DEHRADUN     UKIN810143     190701356000000000000000000000000000000000000000000000356000000000000000000000000000000000000000000000000001000000000
DDC0402  918211152434005103728000041062    426214010719152434190701111458601119070190098000000009891093005RISHIKESH              DEHRADUN     UKIN810143     190701356000000000500000000000000500000000000000000000356000000000500000000000000000000000000000000000000001000000000
DDC0402  918210134988006075320030620792    676318010719134988190701105248601119070190098000000009891093005RISHIKESH              DEHRADUN     UKIN810143     190701356000000000200000000000000200000000000000000000356000000000200000000000000000000000000000000000000001000000000
DDC0402  918210129679006521830906189326    129679010719129679190701104552601119070190083000000008391093013DCBLTD COURT2 COM D DUNDEHRADUN     UKIN810143     190701356000000000170000000000000170000000000000000000356000000000170000000000000000000000000000000000000001000000000
DDC0402  918210130202006070936125161122    UNI000010719130202190701104636601119070190098000000009891093005RISHIKESH              DEHRADUN     UKIN810143     190701356000000000600000000000000600000000000000000000356000000000600000000000000000000000000000000000000001000000000
DDC0402  918210131401006081710524009654    131401010719131401190701104811601119070190098000000009891093004MAIN BAZAR VIKAS NAGAR DEHRADUN     UKIN810143     190701356000000000450000000000000450000000000000000000356000000000450000000000000000000000000000000000000001000000000
DDC0502  918210130860006081710524009654    130860010719130860190701104729601119070190098000000009891093004MAIN BAZAR VIKAS NAGAR DEHRADUN     UKIN810143     190701356000000000000000000000000000000000000000000000356000000000000000000000000000000000000000000000000001000000000
DDC0402  918210130906006080320006546735    130906010719130906190701104733601119070190073000000007391093010CHAKRATA ROAD          SAHASPUR     UKIN810143     190701356000000000100000000000000100000000000000000000356000000000100000000000000000000000000000000000000001000000000
DDC0402  918210130495006521830911775374    130495010719130495190701104659601119070190083000000008391093013DCBLTD COURT2 COM D DUNDEHRADUN     UKIN810143     190701356000000000050000000000000050000000000000000000356000000000050000000000000000000000000000000000000001000000000
DDC0402  918210129817046080320006546735          010719129817190701104604601119070190073000000007391093010CHAKRATA ROAD          SAHASPUR     UKIN810143     190701356000000000100000000000000000000000000000000000356000000000000000000000000000000000000000000000000001000000000
DDC0402  918210131164006070936125161122    UNI000010719131164190701104752601119070190098000000009891093005RISHIKESH              DEHRADUN     UKIN810143     190701356000000000400000000000000400000000000000000000356000000000400000000000000000000000000000000000000001000000000
DDC0402  918209096063006070936069005335    UNI000010719096063190701095413601119070190098000000009891093005RISHIKESH              DEHRADUN     UKIN810143     190701356000000000150000000000000150000000000000000000356000000000150000000000000000000000000000000000000001000000000
DDC0502  918210132559006075320763181145    563913010719132559190701104940601119070190098000000009891093004MAIN BAZAR VIKAS NAGAR DEHRADUN     UKIN810143     190701356000000000000000000000000000000000000000000000356000000000000000000000000000000000000000000000000001000000000
DDC0402  918210132045246075320763181145    545401010719132045190701104859601119070190098000000009891093004MAIN BAZAR VIKAS NAGAR DEHRADUN     UKIN810143     190701356000000000200000000000000000000000000000000000356000000000000000000000000000000000000000000000000001000000000
DDC0402  918210132789006081712070000772    132789010719132789190701104958601119070190073000000007391093010CHAKRATA ROAD          SAHASPUR     UKIN810143     190701356000000000100000000000000100000000000000000000356000000000100000000000000000000000000000000000000001000000000
DDC0502  918210131729006078591000296451    UNI000010719131729190701104835601119070190098000000009891093005RISHIKESH              DEHRADUN     UKIN810143     190701356000000000000000000000000000000000000000000000356000000000000000000000000000000000000000000000000001000000000
DDC0502  918211150294006070936062039166    UNI000010719150294190701111214601119070190098000000009891093005RISHIKESH              DEHRADUN     UKIN810143     190701356000000000000000000000000000000000000000000000356000000000000000000000000000000000000000000000000001000000000
DDC0402  918211150906006070936062039166    UNI000010719150906190701111300601119070190098000000009891093005RISHIKESH              DEHRADUN     UKIN810143     190701356000000000050000000000000050000000000000000000356000000000050000000000000000000000000000000000000001000000000
DDC0402  918212217888005103720323307437    972778010719217888190701123118601119070190098000000009891093004MAIN BAZAR VIKAS NAGAR DEHRADUN     UKIN810143     190701356000000000300000000000000300000000000000000000356000000000300000000000000000000000000000000000000001000000000
DDC0502  918211191102006522600002033515    624541010719191102190701115955601119070190098000000009891093005RISHIKESH              DEHRADUN     UKIN810143     190701356000000000000000000000000000000000000000000000356000000000000000000000000000000000000000000000000001000000000
DDC0501  918212222530005103720403703190    317869010719222530190701123657601119070190072000000007291093006RAIPUR                 DEHRADUN     UKIN810143     190701356000000000000000000000000000000000000000000000356000000000000000000000000000000000000000000000000001000000000
DDC0502  918209071920005103720147337792    332675010719071920190701090038601119070190086000000008691093015NEAR HANUMAN RAIWALA   DEHRADUN     UKIN810143     190701356000000000000000000000000000000000000000000000356000000000000000000000000000000000000000000000000001000000000
DDC0402  918211185142004786790015681800    708161010719185142190701115308601119070190098000000009891093004MAIN BAZAR VIKAS NAGAR DEHRADUN     UKIN810143     190701356000000001000000000000001000000000000000000000356000000001000000000000000000000000000000000000000001000000000
DDC0402  918212222238005126522010649763    UNI000010719222238190701123637601119070190072000000007291093009KALSI                  DEHRADUN     UKIN810143     190701356000000000500000000000000500000000000000000000356000000000500000000000000000000000000000000000000001000000000
DDC0402  918212226522006070936021863086    UNI000010719226522190701124151601119070190083000000008391093013DCBLTD COURT2 COM D DUNDEHRADUN     UKIN810143     190701356000000000100000000000000100000000000000000000356000000000100000000000000000000000000000000000000001000000000
DDC0402  918212221892005196190287148524    1309190107192218921907011236126012190701000000000000000M9429975AJABPUR JOGIWALA CHOWK DEHRADUN     UKIN810143     190701356000000000150000000000000150000000000000000000356000000000150000000000000000000000000000000000000001000000000
DDC0402  918211190448246522600002033515          010719190448190701115910601119070190098000000009891093005RISHIKESH              DEHRADUN     UKIN810143     190701356000000000150000000000000000000000000000000000356000000000000000000000000000000000000000000000000001000000000
DDC0502  918211184796005103728006174057    520826010719184796190701115244601119070190086000000008691093015NEAR HANUMAN RAIWALA   DEHRADUN     UKIN810143     190701356000000000000000000000000000000000000000000000356000000000000000000000000000000000000000000000000001000000000
DDC0502  918211190423006070936148319855    UNI000010719190423190701115909601119070190086000000008691093015NEAR HANUMAN RAIWALA   DEHRADUN     UKIN810143     190701356000000000000000000000000000000000000000000000356000000000000000000000000000000000000000000000000001000000000
DDC0502  918212217138006070936101012893    UNI000010719217138190701123024601119070190098000000009891093005RISHIKESH              DEHRADUN     UKIN810143     190701356000000000000000000000000000000000000000000000356000000000000000000000000000000000000000000000000001000000000
DDC0402  918211177955006081711873000211    177955010719177955190701114509601119070190073000000007391093011NEHRU COLONY           DEHRADUN     UKIN810143     190701356000000001000000000000001000000000000000000000356000000001000000000000000000000000000000000000000001000000000
DDC0502  918212212647005103720038269823    227236010719212647190701122456601119070190072000000007291093009KALSI                  DEHRADUN     UKIN810143     190701356000000000000000000000000000000000000000000000356000000000000000000000000000000000000000000000000001000000000
DDC0502  918211185837004786790015681800    332675010719185837190701115354601119070190098000000009891093004MAIN BAZAR VIKAS NAGAR DEHRADUN     UKIN810143     190701356000000000000000000000000000000000000000000000356000000000000000000000000000000000000000000000000001000000000
DDC0402  918211146448004722546294089751    020491010719146448190701110724601119070190098000000009891093004MAIN BAZAR VIKAS NAGAR DEHRADUN     UKIN810143     190701356000000001000000000000001000000000000000000000356000000001000000000000000000000000000000000000000001000000000
DDC0402  918211145938005172861620000147    008610010719145938190701110646601119070190083000000008391093013DCBLTD COURT2 COM D DUNDEHRADUN     UKIN810143     190701356000000001000000000000001000000000000000000000356000000001000000000000000000000000000000000000000001000000000
DDC0402  918210129246246078591000296451          010719129246190701104520601119070190098000000009891093005RISHIKESH              DEHRADUN     UKIN810143     190701356000000000600000000000000000000000000000000000356000000000000000000000000000000000000000000000000001000000000
DDC0402  918209095635006521515020050120    095326010719095635190701095326601119070190098000000009891093004MAIN BAZAR VIKAS NAGAR DEHRADUN     UKIN810143     190701356000000000500000000000000500000000000000000000356000000000500000000000000000000000000000000000000001000000000
DDC0502  918212204474006071970240013180    444570010719204474190701121520601119070190083000000008391093013DCBLTD COURT2 COM D DUNDEHRADUN     UKIN810143     190701356000000000000000000000000000000000000000000000356000000000000000000000000000000000000000000000000001000000000
DDC0402  918211179243244591150093163673    485413010719179243190701114633601119070190086000000008691093016JOLLY GRANT BHANIAWALA DEHRADUN     UKIN810143     190701356000000001000000000000000000000000000000000000356000000000000000000000000000000000000000000000000001000000000
DDC0402  918211144926005172861620000147    983950010719144926190701110534601119070190083000000008391093013DCBLTD COURT2 COM D DUNDEHRADUN     UKIN810143     190701356000000001000000000000001000000000000000000000356000000001000000000000000000000000000000000000000001000000000
DDC0402  918211143647085103720240475440          010719143647190701110357601119070190098000000009891093004MAIN BAZAR VIKAS NAGAR DEHRADUN     UKIN810143     190701356000000000200000000000000000000000000000000000356000000000000000000000000000000000000000000000000001000000000
DDC0402  918211144499085103720240475440          010719144499190701110502601119070190098000000009891093004MAIN BAZAR VIKAS NAGAR DEHRADUN     UKIN810143     190701356000000000200000000000000000000000000000000000356000000000000000000000000000000000000000000000000001000000000
DDC0402  918211145207006070936146536500    UNI000010719145207190701110554601119070190098000000009891093005RISHIKESH              DEHRADUN     UKIN810143     190701356000000000500000000000000500000000000000000000356000000000500000000000000000000000000000000000000001000000000
DDC0403  918211181502004592000163789759    567595010719181502190701114904601119070190072000000007291093009KALSI                  DEHRADUN     UKIN810143     190701356000000001000000000000001000000000000000000000356000000001000000000000000000000000000000000000000001000000000
DDC0402  918210124892006070936147331752    UNI000010719124892190701103933601119070190098000000009891093005RISHIKESH              DEHRADUN     UKIN810143     190701356000000000800000000000000800000000000000000000356000000000800000000000000000000000000000000000000001000000000
DDC0401  918211141955005089633284005098    141955010719141955190701110146601119070190098000000009891093005RISHIKESH              DEHRADUN     UKIN810143     190701356000000000100000000000000100000000000000000000356000000000100000000000000000000000000000000000000001000000000
DDC0402  918209094949004357085018309890    429993010719094949190701095204601119070190098000000009891093004MAIN BAZAR VIKAS NAGAR DEHRADUN     UKIN810143     190701356000000000200000000000000200000000000000000000356000000000200000000000000000000000000000000000000001000000000
DDC0402  918212199935004592000097439984    274053010719199935190701121005601119070190072000000007291093009KALSI                  DEHRADUN     UKIN810143     190701356000000000100000000000000100000000000000000000356000000000100000000000000000000000000000000000000001000000000
DDC0402  918212214351086522600002033515    640921010719214351190701122701601119070190098000000009891093005RISHIKESH              DEHRADUN     UKIN810143     190701356000000000150000000000000000000000000000000000356000000000000000000000000000000000000000000000000001000000000
DDC0502  918212199017004592000133955084    969223010719199017190701120901601119070190086000000008691093016JOLLY GRANT BHANIAWALA DEHRADUN     UKIN810143     190701356000000000000000000000000000000000000000000000356000000000000000000000000000000000000000000000000001000000000
DDC0402  918211184274005103720276011440    669875010719184274190701115210601119070190083000000008391093013DCBLTD COURT2 COM D DUNDEHRADUN     UKIN810143     190701356000000000500000000000000500000000000000000000356000000000500000000000000000000000000000000000000001000000000
DDC0402  918209093894006074310003505774    800808010719093894190701095005601119070190098000000009891093005RISHIKESH              DEHRADUN     UKIN810143     190701356000000000200000000000000200000000000000000000356000000000200000000000000000000000000000000000000001000000000
DDC0402  918210109572004591150293793915    528455010719109572190701101716601119070190098000000009891093005RISHIKESH              DEHRADUN     UKIN810143     190701356000000000200000000000000200000000000000000000356000000000200000000000000000000000000000000000000001000000000
DDC0700  918210112978006220180617000147174 675526010719112978190701102223601119070190072000000007291093008DOIWALA                DEHRADUN     UKIN810143     190701356000000000000000000000000000000000000000000000356000000000000000000000000000000000000000000000000001000000000
DDC0700  918210113556006075320648277464    703386010719113556190701102313601119070190072000000007291093009KALSI                  DEHRADUN     UKIN810143     190701356000000000000000000000000000000000000000000000356000000000000000000000000000000000000000000000000001000000000
DDC0402  918210110383006079520200161073    180073010719110383190701101834601119070190072000000007291093009KALSI                  DEHRADUN     UKIN810143     190701356000000000300000000000000300000000000000000000356000000000300000000000000000000000000000000000000001000000000
DDC0401  918210110942006070936158266384    UNI000010719110942190701101924601119070190098000000009891093005RISHIKESH              DEHRADUN     UKIN810143     190701356000000001000000000000001000000000000000000000356000000001000000000000000000000000000000000000000001000000000
DDC0402  918212192977004722541593000708    018160010719192977190701120206601119070190083000000008391093013DCBLTD COURT2 COM D DUNDEHRADUN     UKIN810143     190701356000000000150000000000000150000000000000000000356000000000150000000000000000000000000000000000000001000000000
DDC0401  918210106711056522465014263090          010719106711190701101235601119070190098000000009891093004MAIN BAZAR VIKAS NAGAR DEHRADUN     UKIN810143     190701356000000000050000000000000000000000000000000000356000000000000000000000000000000000000000000000000001000000000
DDC0700  918211183804005103720480330206    654533010719183804190701115140601119070190086000000008691093016JOLLY GRANT BHANIAWALA DEHRADUN     UKIN810143     190701356000000000000000000000000000000000000000000000356000000000000000000000000000000000000000000000000001000000000
DDC0401  918210100044004591150344066030    863570010719100044190701100117601119070190098000000009891093005RISHIKESH              DEHRADUN     UKIN810143     190701356000000000300000000000000300000000000000000000356000000000300000000000000000000000000000000000000001000000000
DDC0700  918210128535005596010082747682    387847010719128535190701104426601119070190086000000008691093016JOLLY GRANT BHANIAWALA DEHRADUN     UKIN810143     190701356000000000000000000000000000000000000000000000356000000000000000000000000000000000000000000000000001000000000
DDC0402  918210102149006071970286009639    443403010719102149190701100500601119070190098000000009891093005RISHIKESH              DEHRADUN     UKIN810143     190701356000000001000000000000001000000000000000000000356000000001000000000000000000000000000000000000000001000000000
DDC0502  918211189290006070936196491739    UNI000010719189290190701115751601119070190086000000008691093015NEAR HANUMAN RAIWALA   DEHRADUN     UKIN810143     190701356000000000000000000000000000000000000000000000356000000000000000000000000000000000000000000000000001000000000
DDC0401  918212198108006074070100619635    005521010719198108190701120757601119070190083000000008391093013DCBLTD COURT2 COM D DUNDEHRADUN     UKIN810143     190701356000000000500000000000000500000000000000000000356000000000500000000000000000000000000000000000000001000000000
DDC0502  918212197955006521600274637705    197955010719197955190701120747601119070190086000000008691093016JOLLY GRANT BHANIAWALA DEHRADUN     UKIN810143     190701356000000000000000000000000000000000000000000000356000000000000000000000000000000000000000000000000001000000000
DDC0403  918212202094285126522022574736    UNI000010719202094190701121234601119070190086000000008691093015NEAR HANUMAN RAIWALA   DEHRADUN     UKIN810143     190701356000000000100000000000000000000000000000000000356000000000000000000000000000000000000000000000000001000000000
DDC0402  918212202577006071970240013180    444551010719202577190701121310601119070190083000000008391093013DCBLTD COURT2 COM D DUNDEHRADUN     UKIN810143     190701356000000000100000000000000100000000000000000000356000000000100000000000000000000000000000000000000001000000000
DDC0403  918212201388006069980062154594    201388010719201388190701121146601119070190098000000009891093004MAIN BAZAR VIKAS NAGAR DEHRADUN     UKIN810143     190701356000000000500000000000000500000000000000000000356000000000500000000000000000000000000000000000000001000000000
DDC0502  918210118469006071977000791319    443622010719118469190701103020601119070190098000000009891093004MAIN BAZAR VIKAS NAGAR DEHRADUN     UKIN810143     190701356000000000000000000000000000000000000000000000356000000000000000000000000000000000000000000000000001000000000
DDC0700  918212220721005103720035854163    872920010719220721190701123449601119070190086000000008691093015NEAR HANUMAN RAIWALA   DEHRADUN     UKIN810143     190701356000000000000000000000000000000000000000000000356000000000000000000000000000000000000000000000000001000000000
DDC0402  918211187363006071970118007199    444392010719187363190701115538601119070190073000000007391093011NEHRU COLONY           DEHRADUN     UKIN810143     190701356000000000010000000000000010000000000000000000356000000000010000000000000000000000000000000000000001000000000
DDC0401  918212225109004505020022857650    018354010719225109190701124008601119070190073000000007391093011NEHRU COLONY           DEHRADUN     UKIN810143     190701356000000001000000000000001000000000000000000000356000000001000000000000000000000000000000000000000001000000000
DDC0402  918210125615005103720418588388    263526010719125615190701104032601119070190098000000009891093004MAIN BAZAR VIKAS NAGAR DEHRADUN     UKIN810143     190701356000000000200000000000000200000000000000000000356000000000200000000000000000000000000000000000000001000000000
DDC0402  918210105698004591150383895588    350238010719105698190701101056601119070190098000000009891093005RISHIKESH              DEHRADUN     UKIN810143     190701356000000000090000000000000090000000000000000000356000000000090000000000000000000000000000000000000001000000000
DDC0402  918210100640006074310132842270    117021010719100640190701100221601119070190098000000009891093005RISHIKESH              DEHRADUN     UKIN810143     190701356000000000200000000000000200000000000000000000356000000000200000000000000000000000000000000000000001000000000
DDC0402  918210105730005103720079133706    352447010719105730190701101059601119070190072000000007291093009KALSI                  DEHRADUN     UKIN810143     190701356000000000900000000000000900000000000000000000356000000000900000000000000000000000000000000000000001000000000
DDC0401  918212224390004505020022857650    017063010719224390190701123912601119070190073000000007391093011NEHRU COLONY           DEHRADUN     UKIN810143     190701356000000001000000000000001000000000000000000000356000000001000000000000000000000000000000000000000001000000000
DDC0402  918212205545006522091525734302    205545010719205545190701121636601119070190098000000009891093005RISHIKESH              DEHRADUN     UKIN810143     190701356000000000300000000000000300000000000000000000356000000000300000000000000000000000000000000000000001000000000
DDC0502  918209080091006070936068971636    UNI000010719080091190701092033601119070190086000000008691093015NEAR HANUMAN RAIWALA   DEHRADUN     UKIN810143     190701356000000000000000000000000000000000000000000000356000000000000000000000000000000000000000000000000001000000000
DDC0402  918209096848006070936069005335    UNI000010719096848190701095538601119070190098000000009891093005RISHIKESH              DEHRADUN     UKIN810143     190701356000000000050000000000000050000000000000000000356000000000050000000000000000000000000000000000000001000000000
