DDC0402  918217407523005158756004937898    104998010719407523190701170304601119070190098000000009891093004MAIN BAZAR VIKAS NAGAR DEHRADUN     UKIN810143     190701356000000000500000000000000500000000000000000000356000000000500000000000000000000000000000000000000001000000000
DDC0402  918220552568004799320225004190    025639010719552568190701204319601119070190098000000009891093004MAIN BAZAR VIKAS NAGAR DEHRADUN     UKIN810143     190701356000000000400000000000000400000000000000000000356000000000400000000000000000000000000000000000000001000000000
DDC0402  918213276264005103720416252284    265256010719276264190701134337601119070190098000000009891093004MAIN BAZAR VIKAS NAGAR DEHRADUN     UKIN810143     190701356000000001000000000000001000000000000000000000356000000001000000000000000000000000000000000000000001000000000
DDC0502  918214289103006070936146110397    UNI000010719289103190701140108601119070190086000000008691093016JOLLY GRANT BHANIAWALA DEHRADUN     UKIN810143     190701356000000000000000000000000000000000000000000000356000000000000000000000000000000000000000000000000001000000000
DDC0402  918214295041004592000073362069    350430010719295041190701140926601119070190083000000008391093013DCBLTD COURT2 COM D DUNDEHRADUN     UKIN810143     190701356000000000100000000000000100000000000000000000356000000000100000000000000000000000000000000000000001000000000
DDC0402  918214292555005597251236001092    021168010719292555190701140556601119070190073000000007391093011NEHRU COLONY           DEHRADUN     UKIN810143     190701356000000000100000000000000100000000000000000000356000000000100000000000000000000000000000000000000001000000000
DDC0502  918214289224006074310153991758    391234010719289224190701140117601119070190072000000007291093009KALSI                  DEHRADUN     UKIN810143     190701356000000000000000000000000000000000000000000000356000000000000000000000000000000000000000000000000001000000000
DDC0700  918214288424006075320592175896    762386010719288424190701140011601119070190072000000007291093009KALSI                  DEHRADUN     UKIN810143     190701356000000000000000000000000000000000000000000000356000000000000000000000000000000000000000000000000001000000000
DDC0502  918214288781006075320773951628    558923010719288781190701140040601119070190072000000007291093009KALSI                  DEHRADUN     UKIN810143     190701356000000000000000000000000000000000000000000000356000000000000000000000000000000000000000000000000001000000000
DDC0402  918214290094006070936146110397    UNI000010719290094190701140230601119070190086000000008691093016JOLLY GRANT BHANIAWALA DEHRADUN     UKIN810143     190701356000000000050000000000000050000000000000000000356000000000050000000000000000000000000000000000000001000000000
DDC0402  918214295654006070936200373907    UNI000010719295654190701141015601119070190098000000009891093004MAIN BAZAR VIKAS NAGAR DEHRADUN     UKIN810143     190701356000000000150000000000000150000000000000000000356000000000150000000000000000000000000000000000000001000000000
DDC0401  918214298167004357085018046856    159392010719298167190701141351601119070190083000000008391093013DCBLTD COURT2 COM D DUNDEHRADUN     UKIN810143     190701356000000000050000000000000050000000000000000000356000000000050000000000000000000000000000000000000001000000000
DDC0502  918214290305006075320773951628    559961010719290305190701140247601119070190072000000007291093009KALSI                  DEHRADUN     UKIN810143     190701356000000000000000000000000000000000000000000000356000000000000000000000000000000000000000000000000001000000000
DDC0502  918216397079006070936070205502    UNI000010719397079190701164649601119070190086000000008691093016JOLLY GRANT BHANIAWALA DEHRADUN     UKIN810143     190701356000000000000000000000000000000000000000000000356000000000000000000000000000000000000000000000000001000000000
DDC0402  918216397759006070936070205502    UNI000010719397759190701164752601119070190086000000008691093016JOLLY GRANT BHANIAWALA DEHRADUN     UKIN810143     190701356000000000040000000000000040000000000000000000356000000000040000000000000000000000000000000000000001000000000
DDC0401  918216396562286070936182606001    UNI000010719396562190701164602601119070190073000000007391093010CHAKRATA ROAD          SAHASPUR     UKIN810143     190701356000000000200000000000000000000000000000000000356000000000000000000000000000000000000000000000000001000000000
DDC0402  918216397821246070936182606001          010719397821190701164758601119070190073000000007391093010CHAKRATA ROAD          SAHASPUR     UKIN810143     190701356000000000200000000000000000000000000000000000356000000000000000000000000000000000000000000000000001000000000
DDC0402  918216397386004591150108144874    494275010719397386190701164717601119070190073000000007391093011NEHRU COLONY           DEHRADUN     UKIN810143     190701356000000000020000000000000020000000000000000000356000000000020000000000000000000000000000000000000001000000000
DDC0402  918216396613005126522005336681    UNI000010719396613190701164607601119070190098000000009891093005RISHIKESH              DEHRADUN     UKIN810143     190701356000000000020000000000000020000000000000000000356000000000020000000000000000000000000000000000000001000000000
DDC0402  918217414227005103720379192170    288416010719414227190701171304601119070190098000000009891093004MAIN BAZAR VIKAS NAGAR DEHRADUN     UKIN810143     190701356000000000200000000000000200000000000000000000356000000000200000000000000000000000000000000000000001000000000
DDC0700  918217415244006220180844200092964 336212010719415244190701171433601119070190086000000008691093015NEAR HANUMAN RAIWALA   DEHRADUN     UKIN810143     190701356000000000000000000000000000000000000000000000356000000000000000000000000000000000000000000000000001000000000
DDC0402  918217406092005085732196248897    406099010719406092190701170057601119070190072000000007291093008DOIWALA                DEHRADUN     UKIN810143     190701356000000000100000000000000100000000000000000000356000000000100000000000000000000000000000000000000001000000000
DDC0402  918213246873005103720198430280    101789010719246873190701130637601119070190072000000007291093009KALSI                  DEHRADUN     UKIN810143     190701356000000000150000000000000150000000000000000000356000000000150000000000000000000000000000000000000001000000000
DDC0402  918213253766006070936154340241    UNI000010719253766190701131518601119070190083000000008391093013DCBLTD COURT2 COM D DUNDEHRADUN     UKIN810143     190701356000000001000000000000001000000000000000000000356000000001000000000000000000000000000000000000000001000000000
DDC0402  918213256251004313930008850556    131826010719256251190701131826601119070190073000000007391093011NEHRU COLONY           DEHRADUN     UKIN810143     190701356000000001000000000000001000000000000000000000356000000001000000000000000000000000000000000000000001000000000
DDC0502  918213264260004591150303081038    157167010719264260190701132832601119070190072000000007291093009KALSI                  DEHRADUN     UKIN810143     190701356000000000000000000000000000000000000000000000356000000000000000000000000000000000000000000000000001000000000
DDC0401  918213255090006522465010154723    288863010719255090190701131659601119070190073000000007391093011NEHRU COLONY           DEHRADUN     UKIN810143     190701356000000000200000000000000200000000000000000000356000000000200000000000000000000000000000000000000001000000000
DDC0402  918215343829006220180789300051016 147117010719343829190701152337601119070190083000000008391093013DCBLTD COURT2 COM D DUNDEHRADUN     UKIN810143     190701356000000001000000000000001000000000000000000000356000000001000000000000000000000000000000000000000001000000000
DDC0502  918215343881004592000093137145    660213010719343881190701152341601119070190072000000007291093009KALSI                  DEHRADUN     UKIN810143     190701356000000000000000000000000000000000000000000000356000000000000000000000000000000000000000000000000001000000000
DDC0402  918220547353006070936048352972    UNI000010719547353190701203228601119070190098000000009891093004MAIN BAZAR VIKAS NAGAR DEHRADUN     UKIN810143     190701356000000000200000000000000200000000000000000000356000000000200000000000000000000000000000000000000001000000000
DDC0502  918219498571006071977000473223    447623010719498571190701191356601119070190098000000009891093004MAIN BAZAR VIKAS NAGAR DEHRADUN     UKIN810143     190701356000000000000000000000000000000000000000000000356000000000000000000000000000000000000000000000000001000000000
DDC0402  918219495170004592000110651938    466134010719495170190701190859601119070190098000000009891093004MAIN BAZAR VIKAS NAGAR DEHRADUN     UKIN810143     190701356000000000300000000000000300000000000000000000356000000000300000000000000000000000000000000000000001000000000
DDC0403  918216388650005103720431834827    892020010719388650190701163346601119070190083000000008391093013DCBLTD COURT2 COM D DUNDEHRADUN     UKIN810143     190701356000000000300000000000000300000000000000000000356000000000300000000000000000000000000000000000000001000000000
DDC0402  918216391652005129530100017020    205220010719391652190701163820601119070190073000000007391093011NEHRU COLONY           DEHRADUN     UKIN810143     190701356000000000100000000000000100000000000000000000356000000000100000000000000000000000000000000000000001000000000
DDC0402  918216393562006521600204566925    393562010719393562190701164123601119070190098000000009891093005RISHIKESH              DEHRADUN     UKIN810143     190701356000000000400000000000000400000000000000000000356000000000400000000000000000000000000000000000000001000000000
DDC0502  918216394182006521600204566925    394182010719394182190701164220601119070190098000000009891093005RISHIKESH              DEHRADUN     UKIN810143     190701356000000000000000000000000000000000000000000000356000000000000000000000000000000000000000000000000001000000000
DDC0402  918216388104006074310018566290    651160010719388104190701163253601119070190072000000007291093009KALSI                  DEHRADUN     UKIN810143     190701356000000000050000000000000050000000000000000000356000000000050000000000000000000000000000000000000001000000000
DDC0402  918216389801006070936170819517    UNI000010719389801190701163528601119070190083000000008391093013DCBLTD COURT2 COM D DUNDEHRADUN     UKIN810143     190701356000000000250000000000000250000000000000000000356000000000250000000000000000000000000000000000000001000000000
DDC0502  918216393078006521600204566925    393078010719393078190701164036601119070190098000000009891093005RISHIKESH              DEHRADUN     UKIN810143     190701356000000000000000000000000000000000000000000000356000000000000000000000000000000000000000000000000001000000000
DDC0502  918216394888004357087512021179    150635010719394888190701164327601119070190073000000007391093011NEHRU COLONY           DEHRADUN     UKIN810143     190701356000000000000000000000000000000000000000000000356000000000000000000000000000000000000000000000000001000000000
DDC0402  918216390595005103720490801758    172492010719390595190701163638601119070190083000000008391093013DCBLTD COURT2 COM D DUNDEHRADUN     UKIN810143     190701356000000000500000000000000500000000000000000000356000000000500000000000000000000000000000000000000001000000000
DDC0402  918213268959004687792163008760    996138010719268959190701133425601119070190083000000008391093013DCBLTD COURT2 COM D DUNDEHRADUN     UKIN810143     190701356000000000100000000000000100000000000000000000356000000000100000000000000000000000000000000000000001000000000
DDC0402  918219492916046070936097377193          010719492916190701190541601119070190098000000009891093004MAIN BAZAR VIKAS NAGAR DEHRADUN     UKIN810143     190701356000000000100000000000000000000000000000000000356000000000000000000000000000000000000000000000000001000000000
DDC0401  918213256025004592000151754021    463936010719256025190701131811601119070190098000000009891093004MAIN BAZAR VIKAS NAGAR DEHRADUN     UKIN810143     190701356000000000100000000000000100000000000000000000356000000000100000000000000000000000000000000000000001000000000
DDC0401  918213246223245103720273666584    759650010719246223190701130547601119070190072000000007291093009KALSI                  DEHRADUN     UKIN810143     190701356000000000200000000000000000000000000000000000356000000000000000000000000000000000000000000000000001000000000
DDC0402  918213241758005196190143874545    903977010719241758190701130019601119070190072000000007291093009KALSI                  DEHRADUN     UKIN810143     190701356000000001000000000000001000000000000000000000356000000001000000000000000000000000000000000000000001000000000
DDC0402  918213246489004592000175920061    863970010719246489190701130608601119070190073000000007391093011NEHRU COLONY           DEHRADUN     UKIN810143     190701356000000001000000000000001000000000000000000000356000000001000000000000000000000000000000000000000001000000000
DDC0402  918213252241006070936112952715    UNI000010719252241190701131320601119070190083000000008391093013DCBLTD COURT2 COM D DUNDEHRADUN     UKIN810143     190701356000000000020000000000000020000000000000000000356000000000020000000000000000000000000000000000000001000000000
DDC0700  918219498053006071977000473223    447617010719498053190701191312601119070190098000000009891093004MAIN BAZAR VIKAS NAGAR DEHRADUN     UKIN810143     190701356000000000000000000000000000000000000000000000356000000000000000000000000000000000000000000000000001000000000
DDC0502  918219492322006070936097377193    UNI000010719492322190701190452601119070190098000000009891093004MAIN BAZAR VIKAS NAGAR DEHRADUN     UKIN810143     190701356000000000000000000000000000000000000000000000356000000000000000000000000000000000000000000000000001000000000
DDC0402  918214306765246074310096033833    521673010719306765190701142617601119070190083000000008391093013DCBLTD COURT2 COM D DUNDEHRADUN     UKIN810143     190701356000000000200000000000000000000000000000000000356000000000000000000000000000000000000000000000000001000000000
DDC0402  918214301824394520555645004819          010719301824190701141902601119070190083000000008391093013DCBLTD COURT2 COM D DUNDEHRADUN     UKIN810143     190701356000000000030000000000000000000000000000000000356000000000000000000000000000000000000000000000000001000000000
DDC0501  918214303604006070936048345646    UNI000010719303604190701142138601119070190072000000007291093009KALSI                  DEHRADUN     UKIN810143     190701356000000000000000000000000000000000000000000000356000000000000000000000000000000000000000000000000001000000000
DDC0501  918214303150004592000139338020    559961010719303150190701142057601119070190072000000007291093009KALSI                  DEHRADUN     UKIN810143     190701356000000000000000000000000000000000000000000000356000000000000000000000000000000000000000000000000001000000000
DDC0502  918214302746006070936021674376    UNI000010719302746190701142021601119070190072000000007291093009KALSI                  DEHRADUN     UKIN810143     190701356000000000000000000000000000000000000000000000356000000000000000000000000000000000000000000000000001000000000
DDC0502  918214301573004592000078282676    494951010719301573190701141843601119070190072000000007291093009KALSI                  DEHRADUN     UKIN810143     190701356000000000000000000000000000000000000000000000356000000000000000000000000000000000000000000000000001000000000
DDC0401  918214302478005596010117311132    342217010719302478190701141958601119070190083000000008391093013DCBLTD COURT2 COM D DUNDEHRADUN     UKIN810143     190701356000000000900000000000000900000000000000000000356000000000900000000000000000000000000000000000000001000000000
DDC0402  918214304265005264953619632847    304265010719304265190701142240601119070190098000000009891093004MAIN BAZAR VIKAS NAGAR DEHRADUN     UKIN810143     190701356000000000050000000000000050000000000000000000356000000000050000000000000000000000000000000000000001000000000
DDC0402  918213284325286070936154094400    UNI000010719284325190701135433601119070190072000000007291093009KALSI                  DEHRADUN     UKIN810143     190701356000000000300000000000000000000000000000000000356000000000000000000000000000000000000000000000000001000000000
DDC0402  918213285927006074310096033833    658356010719285927190701135643601119070190083000000008391093013DCBLTD COURT2 COM D DUNDEHRADUN     UKIN810143     190701356000000000010000000000000010000000000000000000356000000000010000000000000000000000000000000000000001000000000
DDC0502  918213287876006075320592175896    539075010719287876190701135928601119070190072000000007291093009KALSI                  DEHRADUN     UKIN810143     190701356000000000000000000000000000000000000000000000356000000000000000000000000000000000000000000000000001000000000
DDC0503  918213285083006070936154094400    UNI000010719285083190701135534601119070190072000000007291093009KALSI                  DEHRADUN     UKIN810143     190701356000000000000000000000000000000000000000000000356000000000000000000000000000000000000000000000000001000000000
DDC0401  918213287935116070936121321183          010719287935190701135931601119070190098000000009891093005RISHIKESH              DEHRADUN     UKIN810143     190701356000000001000000000000000000000000000000000000356000000000000000000000000000000000000000000000000001000000000
DDC0403  918213285577286070936154094400    UNI000010719285577190701135612601119070190072000000007291093009KALSI                  DEHRADUN     UKIN810143     190701356000000000300000000000000000000000000000000000356000000000000000000000000000000000000000000000000001000000000
DDC0402  918213286743006070935005661045    UNI000010719286743190701135751601119070190086000000008691093016JOLLY GRANT BHANIAWALA DEHRADUN     UKIN810143     190701356000000000100000000000000100000000000000000000356000000000100000000000000000000000000000000000000001000000000
DDC0402  918213280214054357089413565833          010719280214190701134855601119070190098000000009891093005RISHIKESH              DEHRADUN     UKIN810143     190701356000000000800000000000000000000000000000000000356000000000000000000000000000000000000000000000000001000000000
DDC0402  918213263347005103720184799417    755915010719263347190701132721601119070190083000000008391093013DCBLTD COURT2 COM D DUNDEHRADUN     UKIN810143     190701356000000000050000000000000050000000000000000000356000000000050000000000000000000000000000000000000001000000000
DDC0402  918213280708204357089413565833          010719280708190701134936601119070190098000000009891093005RISHIKESH              DEHRADUN     UKIN810143     190701356000000000050000000000000000000000000000000000356000000000000000000000000000000000000000000000000001000000000
DDC0402  918213278655054357089413565833          010719278655190701134644601119070190098000000009891093005RISHIKESH              DEHRADUN     UKIN810143     190701356000000000950000000000000000000000000000000000356000000000000000000000000000000000000000000000000001000000000
DDC0502  918213281693005596010066986942    207884010719281693190701135054601119070190072000000007291093009KALSI                  DEHRADUN     UKIN810143     190701356000000000000000000000000000000000000000000000356000000000000000000000000000000000000000000000000001000000000
DDC0502  918213255772005103720273666584    554434010719255772190701131749601119070190072000000007291093009KALSI                  DEHRADUN     UKIN810143     190701356000000000000000000000000000000000000000000000356000000000000000000000000000000000000000000000000001000000000
DDC0502  918213279268204357089413565833          010719279268190701134735601119070190098000000009891093005RISHIKESH              DEHRADUN     UKIN810143     190701356000000000000000000000000000000000000000000000356000000000000000000000000000000000000000000000000001000000000
DDC0402  918213285285006074310096033833    628589010719285285190701135549601119070190083000000008391093013DCBLTD COURT2 COM D DUNDEHRADUN     UKIN810143     190701356000000000050000000000000050000000000000000000356000000000050000000000000000000000000000000000000001000000000
DDC0402  918213287498006070935005661045    UNI000010719287498190701135857601119070190086000000008691093016JOLLY GRANT BHANIAWALA DEHRADUN     UKIN810143     190701356000000000060000000000000060000000000000000000356000000000060000000000000000000000000000000000000001000000000
DDC0502  918213281332006071970189018844    445241010719281332190701135025601119070190098000000009891093005RISHIKESH              DEHRADUN     UKIN810143     190701356000000000000000000000000000000000000000000000356000000000000000000000000000000000000000000000000001000000000
DDC0402  918213271416006220181301000057274 746320010719271416190701133732601119070190086000000008691093016JOLLY GRANT BHANIAWALA DEHRADUN     UKIN810143     190701356000000000500000000000000500000000000000000000356000000000500000000000000000000000000000000000000001000000000
DDC0402  918215347077004357085017657216    106327010719347077190701152835601119070190086000000008691093016JOLLY GRANT BHANIAWALA DEHRADUN     UKIN810143     190701356000000000050000000000000050000000000000000000356000000000050000000000000000000000000000000000000001000000000
DDC0402  918215343072004591150199743402    113361010719343072190701152227601119070190083000000008391093013DCBLTD COURT2 COM D DUNDEHRADUN     UKIN810143     190701356000000001000000000000001000000000000000000000356000000001000000000000000000000000000000000000000001000000000
DDC0502  918215344853006220180789300051016 559997010719344853190701152511601119070190083000000008391093013DCBLTD COURT2 COM D DUNDEHRADUN     UKIN810143     190701356000000000000000000000000000000000000000000000356000000000000000000000000000000000000000000000000001000000000
DDC0402  918215342374004591150199743402    845540010719342374190701152120601119070190083000000008391093013DCBLTD COURT2 COM D DUNDEHRADUN     UKIN810143     190701356000000001000000000000001000000000000000000000356000000001000000000000000000000000000000000000000001000000000
DDC0402  918220557321005264957813022218    557321010719557321190701205424601119070190098000000009891093004MAIN BAZAR VIKAS NAGAR DEHRADUN     UKIN810143     190701356000000000250000000000000250000000000000000000356000000000250000000000000000000000000000000000000001000000000
DDC0402  918220555439006070936131066182    UNI000010719555439190701204944601119070190098000000009891093004MAIN BAZAR VIKAS NAGAR DEHRADUN     UKIN810143     190701356000000001000000000000001000000000000000000000356000000001000000000000000000000000000000000000000001000000000
DDC0402  918220556217144591150175074483          010719556217190701205137601119070190098000000009891093004MAIN BAZAR VIKAS NAGAR DEHRADUN     UKIN810143     190701356000000001000000000000000000000000000000000000356000000000000000000000000000000000000000000000000001000000000
DDC0402  918220555024006070936131066182    UNI000010719555024190701204845601119070190098000000009891093004MAIN BAZAR VIKAS NAGAR DEHRADUN     UKIN810143     190701356000000001000000000000001000000000000000000000356000000001000000000000000000000000000000000000000001000000000
DDC0402  918220554532004321991873004331    554532010719554532190701204738601119070190073000000007391093011NEHRU COLONY           DEHRADUN     UKIN810143     190701356000000000350000000000000350000000000000000000356000000000350000000000000000000000000000000000000001000000000
DDC0402  918220555860004691970014425581    007595010719555860190701205047601119070190073000000007391093011NEHRU COLONY           DEHRADUN     UKIN810143     190701356000000000050000000000000050000000000000000000356000000000050000000000000000000000000000000000000001000000000
DDC0402  918220555942146070936131066182          010719555942190701205100601119070190098000000009891093004MAIN BAZAR VIKAS NAGAR DEHRADUN     UKIN810143     190701356000000001000000000000000000000000000000000000356000000000000000000000000000000000000000000000000001000000000
DDC0402  918213245646004592000175920061    549580010719245646190701130507601119070190073000000007391093011NEHRU COLONY           DEHRADUN     UKIN810143     190701356000000001000000000000001000000000000000000000356000000001000000000000000000000000000000000000000001000000000
DDC0402  918219500109005497772229778702    481484010719500109190701191612601119070190073000000007391093011NEHRU COLONY           DEHRADUN     UKIN810143     190701356000000000150000000000000150000000000000000000356000000000150000000000000000000000000000000000000001000000000
DDC0402  918219505163085103720457837134          010719505163190701192319601119070190098000000009891093004MAIN BAZAR VIKAS NAGAR DEHRADUN     UKIN810143     190701356000000000600000000000000000000000000000000000356000000000000000000000000000000000000000000000000001000000000
DDC0402  918219507996006074310163484307    168926010719507996190701192725601119070190098000000009891093005RISHIKESH              DEHRADUN     UKIN810143     190701356000000001000000000000001000000000000000000000356000000001000000000000000000000000000000000000000001000000000
DDC0401  918219504702006070936144561690    UNI000010719504702190701192238601119070190098000000009891093005RISHIKESH              DEHRADUN     UKIN810143     190701356000000000050000000000000050000000000000000000356000000000050000000000000000000000000000000000000001000000000
DDC0402  918219502954004592000020534323    896782010719502954190701192011601119070190073000000007391093011NEHRU COLONY           DEHRADUN     UKIN810143     190701356000000000200000000000000200000000000000000000356000000000200000000000000000000000000000000000000001000000000
DDC0402  918219506226085103720457837134          010719506226190701192449601119070190098000000009891093004MAIN BAZAR VIKAS NAGAR DEHRADUN     UKIN810143     190701356000000000500000000000000000000000000000000000356000000000000000000000000000000000000000000000000001000000000
DDC0402  918214299075006070415006682332    214468010719299075190701141512601119070190083000000008391093013DCBLTD COURT2 COM D DUNDEHRADUN     UKIN810143     190701356000000000050000000000000050000000000000000000356000000000050000000000000000000000000000000000000001000000000
DDC0402  918214300155004591150305699845    246656010719300155190701141644601119070190083000000008391093013DCBLTD COURT2 COM D DUNDEHRADUN     UKIN810143     190701356000000000050000000000000050000000000000000000356000000000050000000000000000000000000000000000000001000000000
DDC0401  918214300883286070936048345646    UNI000010719300883190701141746601119070190072000000007291093009KALSI                  DEHRADUN     UKIN810143     190701356000000000300000000000000000000000000000000000356000000000000000000000000000000000000000000000000001000000000
DDC0402  918215337473004591150298295924    872775010719337473190701151331601119070190083000000008391093013DCBLTD COURT2 COM D DUNDEHRADUN     UKIN810143     190701356000000000100000000000000100000000000000000000356000000000100000000000000000000000000000000000000001000000000
DDC0402  918215338125006070936024279363    UNI000010719338125190701151435601119070190098000000009891093004MAIN BAZAR VIKAS NAGAR DEHRADUN     UKIN810143     190701356000000001000000000000001000000000000000000000356000000001000000000000000000000000000000000000000001000000000
DDC0502  918215336787006070936015448100    UNI000010719336787190701151228601119070190098000000009891093004MAIN BAZAR VIKAS NAGAR DEHRADUN     UKIN810143     190701356000000000000000000000000000000000000000000000356000000000000000000000000000000000000000000000000001000000000
DDC0502  918215337657005103720207969039    157167010719337657190701151346601119070190073000000007391093010CHAKRATA ROAD          SAHASPUR     UKIN810143     190701356000000000000000000000000000000000000000000000356000000000000000000000000000000000000000000000000001000000000
DDC0402  918215337765005103720455122539    885556010719337765190701151359601119070190073000000007391093011NEHRU COLONY           DEHRADUN     UKIN810143     190701356000000000010000000000000010000000000000000000356000000000010000000000000000000000000000000000000001000000000
DDC0402  918215337006005103720207969039    854351010719337006190701151248601119070190073000000007391093010CHAKRATA ROAD          SAHASPUR     UKIN810143     190701356000000000100000000000000100000000000000000000356000000000100000000000000000000000000000000000000001000000000
DDC0401  918213266332006521515015586047    133106010719266332190701133106601119070190073000000007391093010CHAKRATA ROAD          SAHASPUR     UKIN810143     190701356000000001000000000000001000000000000000000000356000000001000000000000000000000000000000000000000001000000000
DDC0402  918213275768004214920355844427    275768010719275768190701134301601119070190073000000007391093011NEHRU COLONY           DEHRADUN     UKIN810143     190701356000000000100000000000000100000000000000000000356000000000100000000000000000000000000000000000000001000000000
DDC0402  918219527201006070661793022006    165282010719527201190701195622601119070190098000000009891093004MAIN BAZAR VIKAS NAGAR DEHRADUN     UKIN810143     190701356000000000100000000000000100000000000000000000356000000000100000000000000000000000000000000000000001000000000
DDC0401  918219522771006070936128997910    UNI000010719522771190701194926601119070190098000000009891093005RISHIKESH              DEHRADUN     UKIN810143     190701356000000000050000000000000050000000000000000000356000000000050000000000000000000000000000000000000001000000000
DDC0402  918213278188004591150142506344    336714010719278188190701134605601119070190083000000008391093013DCBLTD COURT2 COM D DUNDEHRADUN     UKIN810143     190701356000000000050000000000000050000000000000000000356000000000050000000000000000000000000000000000000001000000000
DDC0402  918215346345004712191508207980    346345010719346345190701152727601119070190073000000007391093011NEHRU COLONY           DEHRADUN     UKIN810143     190701356000000000200000000000000200000000000000000000356000000000200000000000000000000000000000000000000001000000000
DDC0402  918215347333006070662795014983    7312940107193473331907011528596012190701000000000000000M4293855MIYANWALA              DEHRADUN     UKIN810143     190701356000000000300000000000000300000000000000000000356000000000300000000000000000000000000000000000000001000000000
DDC0402  918215339202006070936024279363    UNI000010719339202190701151619601119070190098000000009891093004MAIN BAZAR VIKAS NAGAR DEHRADUN     UKIN810143     190701356000000000700000000000000700000000000000000000356000000000700000000000000000000000000000000000000001000000000
DDC0402  918215343437244592000093137145    130262010719343437190701152259601119070190072000000007291093009KALSI                  DEHRADUN     UKIN810143     190701356000000000050000000000000000000000000000000000356000000000000000000000000000000000000000000000000001000000000
DDC0502  918215338739006070936024279363    UNI000010719338739190701151534601119070190098000000009891093004MAIN BAZAR VIKAS NAGAR DEHRADUN     UKIN810143     190701356000000000000000000000000000000000000000000000356000000000000000000000000000000000000000000000000001000000000
DDC0402  918215345863045089255315008089          010719345863190701152645601119070190083000000008391093013DCBLTD COURT2 COM D DUNDEHRADUN     UKIN810143     190701356000000000010000000000000000000000000000000000356000000000000000000000000000000000000000000000000001000000000
DDC0502  918215330744394520553069009521          010719330744190701150303601119070190098000000009891093005RISHIKESH              DEHRADUN     UKIN810143     190701356000000000000000000000000000000000000000000000356000000000000000000000000000000000000000000000000001000000000
DDC0402  918215331799006522110500685048    150444010719331799190701150444601119070190098000000009891093005RISHIKESH              DEHRADUN     UKIN810143     190701356000000000950000000000000950000000000000000000356000000000950000000000000000000000000000000000000001000000000
DDC0402  918215331335145103728003512580          010719331335190701150359601119070190083000000008391093013DCBLTD COURT2 COM D DUNDEHRADUN     UKIN810143     190701356000000001000000000000000000000000000000000000356000000000000000000000000000000000000000000000000001000000000
DDC0402  918215332703006074310109011404    677209010719332703190701150612601119070190083000000008391093013DCBLTD COURT2 COM D DUNDEHRADUN     UKIN810143     190701356000000000050000000000000050000000000000000000356000000000050000000000000000000000000000000000000001000000000
DDC0402  918215332371006069989743114158    332371010719332371190701150541601119070190098000000009891093004MAIN BAZAR VIKAS NAGAR DEHRADUN     UKIN810143     190701356000000000200000000000000200000000000000000000356000000000200000000000000000000000000000000000000001000000000
DDC0402  918215333429006071371873002980    333429010719333429190701150719601119070190083000000008391093013DCBLTD COURT2 COM D DUNDEHRADUN     UKIN810143     190701356000000000200000000000000200000000000000000000356000000000200000000000000000000000000000000000000001000000000
DDC0402  918215330235394520553069009521          010719330235190701150217601119070190098000000009891093005RISHIKESH              DEHRADUN     UKIN810143     190701356000000000050000000000000000000000000000000000356000000000000000000000000000000000000000000000000001000000000
DDC0402  918213270817006220181301000057274 535640010719270817190701133644601119070190086000000008691093016JOLLY GRANT BHANIAWALA DEHRADUN     UKIN810143     190701356000000001000000000000001000000000000000000000356000000001000000000000000000000000000000000000000001000000000
DDC0402  918215329432394520553069009521          010719329432190701150103601119070190098000000009891093005RISHIKESH              DEHRADUN     UKIN810143     190701356000000000050000000000000000000000000000000000356000000000000000000000000000000000000000000000000001000000000
DDC0402  918215328774394520553069009521          010719328774190701150000601119070190098000000009891093005RISHIKESH              DEHRADUN     UKIN810143     190701356000000000050000000000000000000000000000000000356000000000000000000000000000000000000000000000000001000000000
DDC0402  918215329053006521549991133813    734295010719329053190701150025601119070190083000000008391093013DCBLTD COURT2 COM D DUNDEHRADUN     UKIN810143     190701356000000000050000000000000050000000000000000000356000000000050000000000000000000000000000000000000001000000000
DDC0502  918216378940005089252444007256    272255010719378940190701161838601119070190083000000008391093013DCBLTD COURT2 COM D DUNDEHRADUN     UKIN810143     190701356000000000000000000000000000000000000000000000356000000000000000000000000000000000000000000000000001000000000
DDC0402  918216378312005089252444007256    536031010719378312190701161740601119070190083000000008391093013DCBLTD COURT2 COM D DUNDEHRADUN     UKIN810143     190701356000000000100000000000000100000000000000000000356000000000100000000000000000000000000000000000000001000000000
DDC0502  918215355009046071970148008381          010719355009190701154105601119070190072000000007291093008DOIWALA                DEHRADUN     UKIN810143     190701356000000000000000000000000000000000000000000000356000000000000000000000000000000000000000000000000001000000000
DDC0502  918215355774006071970148008381    445854010719355774190701154219601119070190072000000007291093008DOIWALA                DEHRADUN     UKIN810143     190701356000000000000000000000000000000000000000000000356000000000000000000000000000000000000000000000000001000000000
DDC0402  918215361346145103720024125989          010719361346190701155105601119070190083000000008391093013DCBLTD COURT2 COM D DUNDEHRADUN     UKIN810143     190701356000000001000000000000000000000000000000000000356000000000000000000000000000000000000000000000000001000000000
DDC0402  918215366861005103720304368028    124714010719366861190701155943601119070190083000000008391093013DCBLTD COURT2 COM D DUNDEHRADUN     UKIN810143     190701356000000000500000000000000500000000000000000000356000000000500000000000000000000000000000000000000001000000000
DDC0402  918215361499005175740003793204    893957010719361499190701155119601119070190098000000009891093005RISHIKESH              DEHRADUN     UKIN810143     190701356000000000800000000000000800000000000000000000356000000000800000000000000000000000000000000000000001000000000
DDC0402  918215365234005103720183534195    538590010719365234190701155709601119070190072000000007291093009KALSI                  DEHRADUN     UKIN810143     190701356000000001000000000000001000000000000000000000356000000001000000000000000000000000000000000000000001000000000
DDC0402  918215361082006070936013321168    UNI000010719361082190701155041601119070190098000000009891093004MAIN BAZAR VIKAS NAGAR DEHRADUN     UKIN810143     190701356000000001000000000000001000000000000000000000356000000001000000000000000000000000000000000000000001000000000
DDC0402  918215357773006070936157336709    UNI000010719357773190701154531601119070190083000000008391093013DCBLTD COURT2 COM D DUNDEHRADUN     UKIN810143     190701356000000001000000000000001000000000000000000000356000000001000000000000000000000000000000000000000001000000000
DDC0402  918215361762145103720024125989          010719361762190701155144601119070190083000000008391093013DCBLTD COURT2 COM D DUNDEHRADUN     UKIN810143     190701356000000000500000000000000000000000000000000000356000000000000000000000000000000000000000000000000001000000000
DDC0402  918215360236005103720024125989    842629010719360236190701154923601119070190083000000008391093013DCBLTD COURT2 COM D DUNDEHRADUN     UKIN810143     190701356000000001000000000000001000000000000000000000356000000001000000000000000000000000000000000000000001000000000
DDC0402  918215360786005103720024125989    861666010719360786190701155013601119070190083000000008391093013DCBLTD COURT2 COM D DUNDEHRADUN     UKIN810143     190701356000000001000000000000001000000000000000000000356000000001000000000000000000000000000000000000000001000000000
DDC0501  918215351605005596010016793299    469713010719351605190701153536601119070190083000000008391093013DCBLTD COURT2 COM D DUNDEHRADUN     UKIN810143     190701356000000000000000000000000000000000000000000000356000000000000000000000000000000000000000000000000001000000000
DDC0401  918215350229006070936146572927    UNI000010719350229190701153329601119070190098000000009891093004MAIN BAZAR VIKAS NAGAR DEHRADUN     UKIN810143     190701356000000000200000000000000200000000000000000000356000000000200000000000000000000000000000000000000001000000000
DDC0402  918215348266005089255315008089    533796010719348266190701153027601119070190083000000008391093013DCBLTD COURT2 COM D DUNDEHRADUN     UKIN810143     190701356000000000020000000000000020000000000000000000356000000000020000000000000000000000000000000000000001000000000
DDC0502  918214325820006522288976003753    681869010719325820190701145531601119070190083000000008391093013DCBLTD COURT2 COM D DUNDEHRADUN     UKIN810143     190701356000000000000000000000000000000000000000000000356000000000000000000000000000000000000000000000000001000000000
DDC0501  918215351235045596010016793299          010719351235190701153459601119070190083000000008391093013DCBLTD COURT2 COM D DUNDEHRADUN     UKIN810143     190701356000000000000000000000000000000000000000000000356000000000000000000000000000000000000000000000000001000000000
DDC0502  918215353104004598459037642467    353104010719353104190701153759601119070190072000000007291093008DOIWALA                DEHRADUN     UKIN810143     190701356000000000000000000000000000000000000000000000356000000000000000000000000000000000000000000000000001000000000
DDC0502  918214325484006070936081316975    UNI000010719325484190701145459601119070190083000000008391093013DCBLTD COURT2 COM D DUNDEHRADUN     UKIN810143     190701356000000000000000000000000000000000000000000000356000000000000000000000000000000000000000000000000001000000000
DDC0502  918215349000005596010016793299    558923010719349000190701153136601119070190083000000008391093013DCBLTD COURT2 COM D DUNDEHRADUN     UKIN810143     190701356000000000000000000000000000000000000000000000356000000000000000000000000000000000000000000000000001000000000
DDC0402  918214324558004591150069859346    317469010719324558190701145332601119070190083000000008391093013DCBLTD COURT2 COM D DUNDEHRADUN     UKIN810143     190701356000000000100000000000000100000000000000000000356000000000100000000000000000000000000000000000000001000000000
DDC0402  918215352051004520556024005583    708666010719352051190701153618601119070190083000000008391093013DCBLTD COURT2 COM D DUNDEHRADUN     UKIN810143     190701356000000001000000000000001000000000000000000000356000000001000000000000000000000000000000000000000001000000000
DDC0402  918216374180004018061630000101    031083010719374180190701161116601119070190073000000007391093011NEHRU COLONY           DEHRADUN     UKIN810143     190701356000000000200000000000000200000000000000000000356000000000200000000000000000000000000000000000000001000000000
DDC0402  918214319860246521850225008502    000000010719319860190701144615601119070190098000000009891093005RISHIKESH              DEHRADUN     UKIN810143     190701356000000000050000000000000000000000000000000000356000000000000000000000000000000000000000000000000001000000000
DDC0502  918214310464206074450001949846          010719310464190701143153601119070190083000000008391093013DCBLTD COURT2 COM D DUNDEHRADUN     UKIN810143     190701356000000000000000000000000000000000000000000000356000000000000000000000000000000000000000000000000001000000000
DDC0402  918214311643246074310096033833    736454010719311643190701143344601119070190083000000008391093013DCBLTD COURT2 COM D DUNDEHRADUN     UKIN810143     190701356000000000200000000000000000000000000000000000356000000000000000000000000000000000000000000000000001000000000
DDC0502  918214310025006074310096033833    391234010719310025190701143113601119070190083000000008391093013DCBLTD COURT2 COM D DUNDEHRADUN     UKIN810143     190701356000000000000000000000000000000000000000000000356000000000000000000000000000000000000000000000000001000000000
DDC0402  918214312470006070936110626022    UNI000010719312470190701143501601119070190098000000009891093004MAIN BAZAR VIKAS NAGAR DEHRADUN     UKIN810143     190701356000000000050000000000000050000000000000000000356000000000050000000000000000000000000000000000000001000000000
DDC0401  918214323528006072929100942895    575661010719323528190701145157601119070190073000000007391093010CHAKRATA ROAD          SAHASPUR     UKIN810143     190701356000000000100000000000000100000000000000000000356000000000100000000000000000000000000000000000000001000000000
DDC0402  918214322707005596010097753071    232477010719322707190701145040601119070190086000000008691093016JOLLY GRANT BHANIAWALA DEHRADUN     UKIN810143     190701356000000000040000000000000040000000000000000000356000000000040000000000000000000000000000000000000001000000000
DDC0402  918214311555004722540239078409    019877010719311555190701143335601119070190098000000009891093005RISHIKESH              DEHRADUN     UKIN810143     190701356000000000200000000000000200000000000000000000356000000000200000000000000000000000000000000000000001000000000
DDC0502  918214321634006070936119680178    UNI000010719321634190701144857601119070190098000000009891093005RISHIKESH              DEHRADUN     UKIN810143     190701356000000000000000000000000000000000000000000000356000000000000000000000000000000000000000000000000001000000000
DDC0402  918214322223006070936092759254    UNI000010719322223190701144955601119070190098000000009891093004MAIN BAZAR VIKAS NAGAR DEHRADUN     UKIN810143     190701356000000000200000000000000200000000000000000000356000000000200000000000000000000000000000000000000001000000000
DDC0402  918214311150206074450001949846          010719311150190701143256601119070190083000000008391093013DCBLTD COURT2 COM D DUNDEHRADUN     UKIN810143     190701356000000000200000000000000000000000000000000000356000000000000000000000000000000000000000000000000001000000000
DDC0402  918214313045005126522024412133    UNI000010719313045190701143554601119070190083000000008391093013DCBLTD COURT2 COM D DUNDEHRADUN     UKIN810143     190701356000000000100000000000000100000000000000000000356000000000100000000000000000000000000000000000000001000000000
DDC0502  918214322294005596010097753071    576193010719322294190701145002601119070190086000000008691093016JOLLY GRANT BHANIAWALA DEHRADUN     UKIN810143     190701356000000000000000000000000000000000000000000000356000000000000000000000000000000000000000000000000001000000000
DDC0502  918214319669005103720273666584    558923010719319669190701144558601119070190072000000007291093009KALSI                  DEHRADUN     UKIN810143     190701356000000000000000000000000000000000000000000000356000000000000000000000000000000000000000000000000001000000000
DDC0502  918214320207006521850225008502    470702010719320207190701144647601119070190098000000009891093005RISHIKESH              DEHRADUN     UKIN810143     190701356000000000000000000000000000000000000000000000356000000000000000000000000000000000000000000000000001000000000
DDC0502  918214310787206074450001949846          010719310787190701143222601119070190083000000008391093013DCBLTD COURT2 COM D DUNDEHRADUN     UKIN810143     190701356000000000000000000000000000000000000000000000356000000000000000000000000000000000000000000000000001000000000
DDC0402  918214321910005596010097753071    191676010719321910190701144925601119070190086000000008691093016JOLLY GRANT BHANIAWALA DEHRADUN     UKIN810143     190701356000000000050000000000000050000000000000000000356000000000050000000000000000000000000000000000000001000000000
DDC0700  918214309723006074310096033833    646845010719309723190701143045601119070190083000000008391093013DCBLTD COURT2 COM D DUNDEHRADUN     UKIN810143     190701356000000000000000000000000000000000000000000000356000000000000000000000000000000000000000000000000001000000000
DDC0402  918216373234006070936147826876    UNI000010719373234190701160947601119070190072000000007291093009KALSI                  DEHRADUN     UKIN810143     190701356000000000100000000000000100000000000000000000356000000000100000000000000000000000000000000000000001000000000
DDC0402  918216367208286521600758636355    367208010719367208190701160016601119070190072000000007291093006RAIPUR                 DEHRADUN     UKIN810143     190701356000000000050000000000000000000000000000000000356000000000000000000000000000000000000000000000000001000000000
DDC0502  918219518368005089254630012066    602361010719518368190701194250601119070190098000000009891093005RISHIKESH              DEHRADUN     UKIN810143     190701356000000000000000000000000000000000000000000000356000000000000000000000000000000000000000000000000001000000000
DDC0402  918218461644046070935025697003          010719461644190701182119601119070190073000000007391093010CHAKRATA ROAD          SAHASPUR     UKIN810143     190701356000000001000000000000000000000000000000000000356000000000000000000000000000000000000000000000000001000000000
DDC0402  918219511062005419190103138833    554088010719511062190701193154601119070190073000000007391093011NEHRU COLONY           DEHRADUN     UKIN810143     190701356000000000120000000000000120000000000000000000356000000000120000000000000000000000000000000000000001000000000
DDC0402  918219510585046072700622844400          010719510585190701193112601119070190073000000007391093011NEHRU COLONY           DEHRADUN     UKIN810143     190701356000000000120000000000000000000000000000000000356000000000000000000000000000000000000000000000000001000000000
DDC0402  918218464125146071970284010696          010719464125190701182448601119070190073000000007391093010CHAKRATA ROAD          SAHASPUR     UKIN810143     190701356000000000700000000000000000000000000000000000356000000000000000000000000000000000000000000000000001000000000
DDC0402  918219493519006070936097377193    UNI000010719493519190701190633601119070190098000000009891093004MAIN BAZAR VIKAS NAGAR DEHRADUN     UKIN810143     190701356000000000100000000000000100000000000000000000356000000000100000000000000000000000000000000000000001000000000
DDC0402  918218463967045129670900840492          010719463967190701182434601119070190098000000009891093005RISHIKESH              DEHRADUN     UKIN810143     190701356000000000050000000000000000000000000000000000356000000000000000000000000000000000000000000000000001000000000
DDC0402  918218463780045129670900840492          010719463780190701182417601119070190098000000009891093005RISHIKESH              DEHRADUN     UKIN810143     190701356000000000050000000000000000000000000000000000356000000000000000000000000000000000000000000000000001000000000
DDC0502  918218473964006070936160244668    UNI000010719473964190701183852601119070190098000000009891093005RISHIKESH              DEHRADUN     UKIN810143     190701356000000000000000000000000000000000000000000000356000000000000000000000000000000000000000000000000001000000000
DDC0402  918218464998006071970284010696    447038010719464998190701182559601119070190073000000007391093010CHAKRATA ROAD          SAHASPUR     UKIN810143     190701356000000000500000000000000500000000000000000000356000000000500000000000000000000000000000000000000001000000000
DDC0700  918218473809005103720427132004    308023010719473809190701183838601119070190073000000007391093010CHAKRATA ROAD          SAHASPUR     UKIN810143     190701356000000000000000000000000000000000000000000000356000000000000000000000000000000000000000000000000001000000000
DDC0402  918218474630006070936160244668    UNI000010719474630190701183948601119070190098000000009891093005RISHIKESH              DEHRADUN     UKIN810143     190701356000000001000000000000001000000000000000000000356000000001000000000000000000000000000000000000000001000000000
DDC0402  918218475719006074310151388643    412054010719475719190701184120601119070190073000000007391093011NEHRU COLONY           DEHRADUN     UKIN810143     190701356000000000100000000000000100000000000000000000356000000000100000000000000000000000000000000000000001000000000
DDC0402  918218463406006071970284010696    447021010719463406190701182344601119070190073000000007391093010CHAKRATA ROAD          SAHASPUR     UKIN810143     190701356000000001000000000000001000000000000000000000356000000001000000000000000000000000000000000000000001000000000
DDC0700  918219497291046071977000473223          010719497291190701191207601119070190098000000009891093004MAIN BAZAR VIKAS NAGAR DEHRADUN     UKIN810143     190701356000000000000000000000000000000000000000000000356000000000000000000000000000000000000000000000000001000000000
DDC0402  918218460214006070857501918168    199455010719460214190701181920601119070190098000000009891093004MAIN BAZAR VIKAS NAGAR DEHRADUN     UKIN810143     190701356000000000600000000000000600000000000000000000356000000000600000000000000000000000000000000000000001000000000
DDC0402  918218462298046070935025697003          010719462298190701182212601119070190073000000007391093010CHAKRATA ROAD          SAHASPUR     UKIN810143     190701356000000001000000000000000000000000000000000000356000000000000000000000000000000000000000000000000001000000000
DDC0402  918218453390006071977000799551    446857010719453390190701180933601119070190073000000007391093010CHAKRATA ROAD          SAHASPUR     UKIN810143     190701356000000000500000000000000500000000000000000000356000000000500000000000000000000000000000000000000001000000000
DDC0700  918218481646005103720427132004    725807010719481646190701184944601119070190073000000007391093010CHAKRATA ROAD          SAHASPUR     UKIN810143     190701356000000000000000000000000000000000000000000000356000000000000000000000000000000000000000000000000001000000000
DDC0402  918218478875006070936200368287    UNI000010719478875190701184544601119070190098000000009891093004MAIN BAZAR VIKAS NAGAR DEHRADUN     UKIN810143     190701356000000000500000000000000500000000000000000000356000000000500000000000000000000000000000000000000001000000000
DDC0402  918213258846284313930008850556    132137010719258846190701132137601119070190073000000007391093011NEHRU COLONY           DEHRADUN     UKIN810143     190701356000000001000000000000000000000000000000000000356000000000000000000000000000000000000000000000000001000000000
DDC0402  918213260326004313930008850556    132328010719260326190701132328601119070190073000000007391093011NEHRU COLONY           DEHRADUN     UKIN810143     190701356000000000400000000000000400000000000000000000356000000000400000000000000000000000000000000000000001000000000
DDC0402  918220532989244591500134455274    578109010719532989190701200559601119070190098000000009891093004MAIN BAZAR VIKAS NAGAR DEHRADUN     UKIN810143     190701356000000000050000000000000000000000000000000000356000000000000000000000000000000000000000000000000001000000000
DDC0402  918217444485006521515035765142    175706010719444485190701175706601119070190098000000009891093005RISHIKESH              DEHRADUN     UKIN810143     190701356000000000020000000000000020000000000000000000356000000000020000000000000000000000000000000000000001000000000
DDC0403  918217443241004591150062898937    718235010719443241190701175521601119070190098000000009891093005RISHIKESH              DEHRADUN     UKIN810143     190701356000000000600000000000000600000000000000000000356000000000600000000000000000000000000000000000000001000000000
DDC0402  918213245362245103720273666584    440370010719245362190701130447601119070190072000000007291093009KALSI                  DEHRADUN     UKIN810143     190701356000000000200000000000000000000000000000000000356000000000000000000000000000000000000000000000000001000000000
DDC0402  918213244917004592000175920061    234820010719244917190701130412601119070190073000000007391093011NEHRU COLONY           DEHRADUN     UKIN810143     190701356000000001000000000000001000000000000000000000356000000001000000000000000000000000000000000000000001000000000
DDC0402  918213250224005103720445946898    229672010719250224190701131044601119070190098000000009891093005RISHIKESH              DEHRADUN     UKIN810143     190701356000000000100000000000000100000000000000000000356000000000100000000000000000000000000000000000000001000000000
DDC0402  918213249678006074310101939669    209487010719249678190701131003601119070190083000000008391093013DCBLTD COURT2 COM D DUNDEHRADUN     UKIN810143     190701356000000001000000000000001000000000000000000000356000000001000000000000000000000000000000000000000001000000000
DDC0402  918220539216006522091507597933    539216010719539216190701201702601119070190098000000009891093004MAIN BAZAR VIKAS NAGAR DEHRADUN     UKIN810143     190701356000000000050000000000000050000000000000000000356000000000050000000000000000000000000000000000000001000000000
DDC0402  918220531358004520553068019679    041510010719531358190701200315601119070190098000000009891093004MAIN BAZAR VIKAS NAGAR DEHRADUN     UKIN810143     190701356000000000150000000000000150000000000000000000356000000000150000000000000000000000000000000000000001000000000
DDC0402  918217435941006521591462400511    275513010719435941190701174503601119070190098000000009891093004MAIN BAZAR VIKAS NAGAR DEHRADUN     UKIN810143     190701356000000000100000000000000100000000000000000000356000000000100000000000000000000000000000000000000001000000000
DDC0402  918220538537246522091507597933          010719538537190701201548601119070190098000000009891093004MAIN BAZAR VIKAS NAGAR DEHRADUN     UKIN810143     190701356000000000100000000000000000000000000000000000356000000000000000000000000000000000000000000000000001000000000
DDC0402  918218448605006521515035765142    180248010719448605190701180248601119070190098000000009891093005RISHIKESH              DEHRADUN     UKIN810143     190701356000000000020000000000000020000000000000000000356000000000020000000000000000000000000000000000000001000000000
DDC0402  918220544450006521831503435948    544450010719544450190701202637601119070190098000000009891093004MAIN BAZAR VIKAS NAGAR DEHRADUN     UKIN810143     190701356000000001000000000000001000000000000000000000356000000001000000000000000000000000000000000000000001000000000
DDC0502  918217417282006220180844200092964 425795010719417282190701171729601119070190086000000008691093015NEAR HANUMAN RAIWALA   DEHRADUN     UKIN810143     190701356000000000000000000000000000000000000000000000356000000000000000000000000000000000000000000000000001000000000
DDC0402  918217420541006521600274644669    420541010719420541190701172211601119070190073000000007391093010CHAKRATA ROAD          SAHASPUR     UKIN810143     190701356000000000500000000000000500000000000000000000356000000000500000000000000000000000000000000000000001000000000
DDC0402  918217422166004722540225027733    009029010719422166190701172437601119070190073000000007391093011NEHRU COLONY           DEHRADUN     UKIN810143     190701356000000000200000000000000200000000000000000000356000000000200000000000000000000000000000000000000001000000000
DDC0401  918217424320004987920104303654    241214010719424320190701172746601119070190073000000007391093011NEHRU COLONY           DEHRADUN     UKIN810143     190701356000000000400000000000000400000000000000000000356000000000400000000000000000000000000000000000000001000000000
DDC0402  918217416056286220180844200092964 374353010719416056190701171543601119070190086000000008691093015NEAR HANUMAN RAIWALA   DEHRADUN     UKIN810143     190701356000000000050000000000000000000000000000000000356000000000000000000000000000000000000000000000000001000000000
DDC0501  918217416111006522360007939584    002080010719416111190701171549601119070190073000000007391093010CHAKRATA ROAD          SAHASPUR     UKIN810143     190701356000000000000000000000000000000000000000000000356000000000000000000000000000000000000000000000000001000000000
DDC0502  918217416702396521635439006487          010719416702190701171638601119070190083000000008391093013DCBLTD COURT2 COM D DUNDEHRADUN     UKIN810143     190701356000000000000000000000000000000000000000000000356000000000000000000000000000000000000000000000000001000000000
DDC0402  918217407952005359850101345837    976972010719407952190701170342601119070190083000000008391093013DCBLTD COURT2 COM D DUNDEHRADUN     UKIN810143     190701356000000001000000000000001000000000000000000000356000000001000000000000000000000000000000000000000001000000000
DDC0700  918217431726005103728000054776    142943010719431726190701173851601119070190086000000008691093015NEAR HANUMAN RAIWALA   DEHRADUN     UKIN810143     190701356000000000000000000000000000000000000000000000356000000000000000000000000000000000000000000000000001000000000
DDC0502  918217431302005103728000054776    494951010719431302190701173810601119070190086000000008691093015NEAR HANUMAN RAIWALA   DEHRADUN     UKIN810143     190701356000000000000000000000000000000000000000000000356000000000000000000000000000000000000000000000000001000000000
DDC0402  918217432182004591150351223631    165544010719432182190701173931601119070190073000000007391093011NEHRU COLONY           DEHRADUN     UKIN810143     190701356000000000040000000000000040000000000000000000356000000000040000000000000000000000000000000000000001000000000
DDC0402  918213277325005103720416252284    301766010719277325190701134459601119070190098000000009891093004MAIN BAZAR VIKAS NAGAR DEHRADUN     UKIN810143     190701356000000001000000000000001000000000000000000000356000000001000000000000000000000000000000000000000001000000000
DDC0402  918217423836004591150139727770    746117010719423836190701172704601119070190098000000009891093005RISHIKESH              DEHRADUN     UKIN810143     190701356000000000300000000000000300000000000000000000356000000000300000000000000000000000000000000000000001000000000
DDC0402  918217416224396521635439006487          010719416224190701171558601119070190083000000008391093013DCBLTD COURT2 COM D DUNDEHRADUN     UKIN810143     190701356000000000200000000000000000000000000000000000356000000000000000000000000000000000000000000000000001000000000
DDC0402  918213248233006072450002618020    248233010719248233190701130816601119070190083000000008391093013DCBLTD COURT2 COM D DUNDEHRADUN     UKIN810143     190701356000000000500000000000000500000000000000000000356000000000500000000000000000000000000000000000000001000000000
DDC0402  918213244078004592000175920061    993309010719244078190701130310601119070190073000000007391093011NEHRU COLONY           DEHRADUN     UKIN810143     190701356000000000100000000000000100000000000000000000356000000000100000000000000000000000000000000000000001000000000
DDC0402  918217408739005158756004937898    210890010719408739190701170454601119070190098000000009891093004MAIN BAZAR VIKAS NAGAR DEHRADUN     UKIN810143     190701356000000000100000000000000100000000000000000000356000000000100000000000000000000000000000000000000001000000000
DDC0401  918213265210394520553425007599          010719265210190701132943601119070190073000000007391093010CHAKRATA ROAD          SAHASPUR     UKIN810143     190701356000000001000000000000000000000000000000000000356000000000000000000000000000000000000000000000000001000000000
DDC0402  918213242978005103728004577186    951732010719242978190701130151601119070190072000000007291093009KALSI                  DEHRADUN     UKIN810143     190701356000000000500000000000000500000000000000000000356000000000500000000000000000000000000000000000000001000000000
DDC0402  918213256828004313930008850556    131912010719256828190701131912601119070190073000000007391093011NEHRU COLONY           DEHRADUN     UKIN810143     190701356000000001000000000000001000000000000000000000356000000001000000000000000000000000000000000000000001000000000
DDC0402  918217406760005158756004937898    147296010719406760190701170156601119070190098000000009891093004MAIN BAZAR VIKAS NAGAR DEHRADUN     UKIN810143     190701356000000000200000000000000200000000000000000000356000000000200000000000000000000000000000000000000001000000000
DDC0401  918216384504005126522010676162    UNI000010719384504190701162720601119070190083000000008391093013DCBLTD COURT2 COM D DUNDEHRADUN     UKIN810143     190701356000000000200000000000000200000000000000000000356000000000200000000000000000000000000000000000000001000000000
DDC0401  918213256705005089252930019732    013825010719256705190701131903601119070190083000000008391093013DCBLTD COURT2 COM D DUNDEHRADUN     UKIN810143     190701356000000000200000000000000200000000000000000000356000000000200000000000000000000000000000000000000001000000000
DDC0402  918216400686046070936182606001          010719400686190701165233601119070190073000000007391093010CHAKRATA ROAD          SAHASPUR     UKIN810143     190701356000000000200000000000000000000000000000000000356000000000000000000000000000000000000000000000000001000000000
DDC0402  918216399245396521636019005642          010719399245190701165009601119070190098000000009891093004MAIN BAZAR VIKAS NAGAR DEHRADUN     UKIN810143     190701356000000000200000000000000000000000000000000000356000000000000000000000000000000000000000000000000001000000000
DDC0402  918216399267005089252646004739    021798010719399267190701165012601119070190098000000009891093005RISHIKESH              DEHRADUN     UKIN810143     190701356000000000500000000000000500000000000000000000356000000000500000000000000000000000000000000000000001000000000
DDC0402  918216399882006070936083961737    UNI000010719399882190701165113601119070190073000000007391093010CHAKRATA ROAD          SAHASPUR     UKIN810143     190701356000000000500000000000000500000000000000000000356000000000500000000000000000000000000000000000000001000000000
DDC0401  918213254055006070417502353251    171413010719254055190701131541601119070190073000000007391093011NEHRU COLONY           DEHRADUN     UKIN810143     190701356000000000100000000000000100000000000000000000356000000000100000000000000000000000000000000000000001000000000
