0415026075182192787664   00000000000010000001234001003302SARITA W/O ARWIND KUMAR   0013KALSI                    ID0000000001000001907010512551907010512550063023062201800000/SBI PATEL NAGAR             00
0433756075182149546387   00000000000030000001315001100016DHARAM SINGH S/O RATAN SIN0014CHAKRATA                 ID0000000010000001907010620551907010620550125800162201800000/SBI  LUMBINI CANTEEN        00
0434606075182149546387   00000000000030000001315001100016DHARAM SINGH S/O RATAN SIN0014CHAKRATA                 ID0000000010000001907010622341907010622340125800162201800000/SBI  LUMBINI CANTEEN        00
0488836075182180020532   00000000000010000001334001000109KUNWAR SINGH CHAUHAN S/O B0014CHAKRATA                 ID000000001000000190701072210190701072210DPRH280280002400000/+VIKAS NAGAR IAD            00
0490796075182001658643   00000000000010000000134001005728ANJANA BISHT W/O VIDHYUT B0002DEHRADUN MAIN BRANCH     ID000000001000000190701072333190701072333S1CW346680000100000/NCR PLAZA                   00
0493266075182180020532   00000000000010000001334001000109KUNWAR SINGH CHAUHAN S/O B0014CHAKRATA                 ID000000000200000190701072511190701072511DPRH280280002400000/+VIKAS NAGAR IAD            00
0516676075182172116504   00000000000010000001834001002062SARITA BHATT W/O JITENDRA 0019RISHIKESH                ID000000001000000190701074126190701074126CWCW156280002400000/PARTEET NAGAR               00
0520896075182157519326   00000000000010000002034001100352KISHAN BAHADUR THAPA S/O R0021JAKHAN                   ID0000000006000001907010744081907010744081539600162201800000/RAJAPUR                     00
0566406075182118308819   00000000000010000000834001100462KAILASH SINGH SO SAROP SIN0009MIYAN WALA               ID0000000007000001907010807451907010807450IGZ802080002700000/BOI  CHITRA TALKIES         00
0570486075182164188909   00000000000010000001634001000419YESHPAL SINGH & POONAM    0017RANIPOKHRI               ID0000000010000001907010809301907010809300118001762201800000/SBI RANI POKHRI             00
0571716075182164188909   00000000000010000001634001000419YESHPAL SINGH & POONAM    0017RANIPOKHRI               ID0000000010000001907010810031907010810030118001762201800000/SBI RANI POKHRI             00
0597786075182117355431   00000000000010000001134001000153LAXMI DEVI BHATNAGAR  W/O 0012VIKASNAGAR               ID000000001000000190701082059190701082059SACWJ54080000100000/NARAINGARH                  00
0605096075182199819940   00000000000010000001334001100005RAJENDRA SINGH S/O NUNIYA 0014CHAKRATA                 ID000000000050000190701082354190701082354DPRH280280002400000/+VIKAS NAGAR IAD            00
0661266075182175344681   00000000000010000001234001000604PARMILA KHATI W/O KRISHAN 0002DEHRADUN MAIN BRANCH     IC0000000010000001907010844431907010844431CRUKDD080000200000/                            00
0661266075182175344681   00000000000010000001234001000604PARMILA KHATI W/O KRISHAN 0002DEHRADUN MAIN BRANCH     ID0000000010000001907010843371907010843371CRUKDD080000200000/BOB                         00
0662336075182142553042   00000000000010000001134001000806ANIL KUMAR S/O LATE RATANL0012VIKASNAGAR               ID000000000500000190701084400190701084400ADDN007050443200000/UBI VIKAS NAGAR             00
0663006075182160681345   00000000000030000001815001100001VIMLA RAWAT W/O SATYENDRA 0019RISHIKESH                ID000000000400000190701084414190701084414CWCW156180002400000/PARTEET NAGAR               00
0671456075182191187908   00000000000010000001934001001780SATENDTRA SINGH S/O LABH S0020SHYAMPUR                 ID000000000100000190701084655190701084655N637140080000400000/NIRMAL EYE HOSPITAL RI      00
0682326075182175344681   00000000000010000001234001000604PARMILA KHATI W/O KRISHAN 0002DEHRADUN MAIN BRANCH     ID0000000010000001907010850191907010850190063007062201800000/KUMAR MEDICOS               00
0696856075182109543812   00000000000010000000134001001897BHOLA RAM S/O LT SH CHUNNI0002DEHRADUN MAIN BRANCH     ID000000001000000190701085431190701085431N274460080000400000/MEHUWALA DEHRADUN 2481      00
0709236075189104436751   00000000000010000001934001000483RAJENDAR SINGH ADHIKARI S/0020SHYAMPUR                 ID000000001000000190701085756190701085756N637140080000400000/NIRMAL EYE HOSPITAL RI      00
0722476075182151583096   00000000000010000001934001000364RAKESH CHAMOLI S/O SH DAYA0020SHYAMPUR                 ID000000001000000190701090134190701090134CWCW156280002400000/PARTEET NAGAR               00
0727986075182151583096   00000000000010000001934001000364RAKESH CHAMOLI S/O SH DAYA0020SHYAMPUR                 ID000000000600000190701090257190701090257CWCW156280002400000/PARTEET NAGAR               00
0788186075182130596615   00000000000010000001234001002364HEMLATA THAKUR W/O MR MAHE0005PREMNAGAR                ID0000000001000001907010917351907010917350063024662201800000/SBI PANDITWARI              00
0860986075182183945693   00000000000010000001734001002660SH SHAHJAD ALI S/O SH RAMJ0018BHOGPUR                  ID000000000200000190701093409190701093409N116200080000400000/BHOGPUR DEHRADUN            00
0901686075182156913397   00000000000010000001334001100165JANGHSHER SACHIV DASAU    0013KALSI                    ID000000000400000190701094225190701094225SFO1014081110100000/SMB RAMPUR                  00
0906596075182084979387   00000000000010000001634001100744PAVITRA DEVI W/O LATE SHYA0017RANIPOKHRI               ID0000000001500001907010943251907010943250118001762201800000/SBI RANI POKHRI             00
0979546075182134182206   00000000000010000001334001100648KARAM SINGH SO DEI RAM    0014CHAKRATA                 ID000000000500000190701095739190701095739NP27670150448200000/VIKASNAGAR                  00
1020126075182154125440   00000000000010000001934001001740MANGAL SINGH S/O SH PHOOL 0020SHYAMPUR                 IC000000000500000190701100548190701100548ID10701190000100000/                            00
1020126075182154125440   00000000000010000001934001001740MANGAL SINGH S/O SH PHOOL 0020SHYAMPUR                 ID000000000500000190701100446190701100446ID10701190000100000/IDBI SHYMPUR PREM NIVS      00
1025306075182152535848   00000000000010000001334001003219AJAB SINGH S/O MADAN SINGH0014CHAKRATA                 IC000000000110000190701100711190701100711REC1021081110100000/                            00
1025306075182152535848   00000000000010000001334001003219AJAB SINGH S/O MADAN SINGH0014CHAKRATA                 ID000000000110000190701100540190701100540REC1021081110100000/HANUMAN TEMPLE              00
1031156075182152535848   00000000000010000001334001003219AJAB SINGH S/O MADAN SINGH0014CHAKRATA                 ID000000000110000190701100641190701100641SFO1021081110100000/SMB SAHARANPUR              00
1045926075182171062071   00000000000010000002134001100198RAVINDRA BHATT S/O BHANU P0022BANJARAWALA              ID0000000010000001907011009081907011009080107200562201800000/NEAR LIF OFFICE             00
1049966075182171062071   00000000000010000002134001100198RAVINDRA BHATT S/O BHANU P0022BANJARAWALA              ID0000000005000001907011009461907011009460107200562201800000/NEAR LIF OFFICE             00
1053176075182171062071   00000000000010000002134001100198RAVINDRA BHATT S/O BHANU P0022BANJARAWALA              ID0000000003000001907011010211907011010210107200562201800000/NEAR LIF OFFICE             00
1071976075182125121718   00000000000010000001234001001720NARESH KUMAR S/O SUNDAR LA0013KALSI                    ID000000000100000190701101325190701101325S1ACDH4980002500000/DEHRADUN PREM NGR OATM      00
1082716075182193870113   00000000000010000001234001001673SAVITA W/O  PRATAP SINGH  0013KALSI                    ID000000000200000190701101513190701101513N213260080000400000/BIASNEHRI HARIPUR           00
1082966075182182099617   00000000000010000000634001100785RAJENDRA PRASAD SHARMA S/O0007NEHRUCOLONY              ID0000000001000001907011015151907011015150063022962201800000/SBI SATTOWALI GHATI         00
1108746075182117898695   00000000000010000000334002100052HUKAM SINGH PUNDIR S/O LAT0004DC STORE,ASTLEY HALL     ID0000000005000001907011019181907011019180063025162201800000/SBI SHIV CHK, MDDA RD       00
1122766075182164217534   00000000000010000002134001100217LATA NAUTIYAL W/O SUBHASH 0022BANJARAWALA              ID000000000100000190701102119190701102119SACWJ68380000100000/KARGI CHOWK                 00
1148636075182174351711   00000000000010000001934001001739KARAN SINGH BHANDARI S/O L0020SHYAMPUR                 ID000000001000000190701102509190701102509N299590080000400000/PNB SHYAMPUR                00
1158906075182174351711   00000000000010000001934001001739KARAN SINGH BHANDARI S/O L0020SHYAMPUR                 ID000000001000000190701102636190701102636N299590080000400000/PNB SHYAMPUR                00
1205316075182170846748   00000000000010000000834010100164RAHUL S/O RAJENDRA PRASAD 0009MIYAN WALA               ID0000000000500001907011033191907011033191289700162201800000/SBI  HARRAWALA              00
1209356075182166237688   00000000000010000002134001100099DHARMENDRA THAKUR S/O ANAN0022BANJARAWALA              ID000000001000000190701103356190701103356N310870080000400000/PNB TILAK ROAD 2 ATM        00
1212606075182159935918   00000000000010000001734001100232SARITA MANWAL D/O DIGAMBAR0018BHOGPUR                  ID000000000050000190701103427190701103427N116200080000400000/BHOGPUR DEHRADUN            00
1218366075182166237688   00000000000010000002134001100099DHARMENDRA THAKUR S/O ANAN0022BANJARAWALA              ID000000001000000190701103516190701103516N310870080000400000/PNB TILAK ROAD 2 ATM        00
1245646075182165187017   00000000000010000000234001001749POOJA KANDWAL W/O DIGPAL  0003SUBZIMANDI               ID000000000500000190701103907190701103907A851600180002900000/92 ANDAMAN MARG CANTON      00
1258856075182165187017   00000000000010000000234001001749POOJA KANDWAL W/O DIGPAL  0003SUBZIMANDI               ID000000000500000190701104054190701104054A851600180002900000/92 ANDAMAN MARG CANTON      00
1269196075182130411427   00000000000010000000934001100649MOHD. NAZIM  S/O LATE NOOR0010SELAKUI                  ID000000000100000190701104220190701104220PC12791150458099840/TULA INSTITUTDEHRADUN       00
1309546075182168806704   00000000000010000002334001100331ANJALI D/O SAROP SINGH    0024RAIWALA                  ID000000000150000190701104737190701104737APCN156180002400000/PREM VIHAR COLONY           00
1309796075182170793288   00000000000010000000334001100855SHEETAL PANWAR W/O BRAHMPA0004DC STORE,ASTLEY HALL     ID000000000200000190701104739190701104739AAA2835A80000900000/RAJPUR ROAD                 00
1326106075182114315891   00000000000010000000134001004789SUMAN CHAMOLI W/O BHAGWATI0002DEHRADUN MAIN BRANCH     ID0000000010000001907011049451907011049450063022262201800000/SBI MOHHABEWALA             00
1339986075182116068928   00000000000010000001134001000237JAGMOHAN SINGH S/O BISHAN 0012VIKASNAGAR               ID0000000008000001907011051321907011051320800101262201800000/SBI COLLAGE RD VIKAS        00
1399246075182178671676   00000000000010000002334001100324HIMANSHU S/O GOPAL BAHADUR0024RAIWALA                  ID000000001000000190701105910190701105910CWCW156180002400000/PARTEET NAGAR               00
1416536075182178671676   00000000000010000002334001100324HIMANSHU S/O GOPAL BAHADUR0024RAIWALA                  IC000000000500000190701110226190701110226CWCW156180002400000/                            00
1416536075182178671676   00000000000010000002334001100324HIMANSHU S/O GOPAL BAHADUR0024RAIWALA                  ID000000000500000190701110122190701110122CWCW156180002400000/PARTEET NAGAR               00
1417846075182152212620   00000000000010000000134001004538CHANDRA PAL S/O SHIVRAM   0002DEHRADUN MAIN BRANCH     ID000000001000000190701110133190701110133ID17680190000100000/IDBI NEGI COMPLEX           00
1426336075182152212620   00000000000010000000134001004538CHANDRA PAL S/O SHIVRAM   0002DEHRADUN MAIN BRANCH     ID000000000600000190701110239190701110239ID17680190000100000/IDBI NEGI COMPLEX           00
1437196075182178671676   00000000000010000002334001100324HIMANSHU S/O GOPAL BAHADUR0024RAIWALA                  ID000000000500000190701110404190701110404CWCW156180002400000/PARTEET NAGAR               00
1450846075182101620386   00000000000030000001215001100005CHATAR SINGH S/O DHUM SING0013KALSI                    ID0000000005019001907011105451907011105455R00100150458099840/VIKAS NAGAR  DEHRADUN       00
1505426075182133318447   00000000000010000001034001003423RAJ  KUMARI               0011SAHASPUR                 ID0000000005000001907011112321907011112321415062162201800000/RECYCLER  SBI SAHASPUR      00
1539226075182113873080   00000000000010000000534001100346SUDHIR KUMAR BARTHWAL S/O 0006RAIPUR                   ID0000000003000001907011116471907011116470305862162201800000/SBI RECYCLER RAIPUR         00
1540996075182157774699   00000000000010000001934001101175VIJAY SINGH BHANDARI S/O C0020SHYAMPUR                 ID000000000400000190701111701190701111701WC20220150458099840/BYE-PASS ROAD,NDS SCH.      00
1549506075182155087201   00000000000010000000134001005674VIMLA CHANDOLA W/O SH SHAN0002DEHRADUN MAIN BRANCH     ID0000000006000001907011118051907011118055R19170150458099840/NAWADA CHOWK,DEHRADUN       00
1551386075182104953644   00000000000010000001234001001660SABAL SINGH S/O SHER SINGH0013KALSI                    ID0000000001000001907011118181907011118180800162162201800000/RECYCLER VIKAS NAGAR        00
1553196075182163762001   00000000000010000001834001100627SANJIV KUMAR S/O RAGHUBEER0019RISHIKESH                ID0000000010000001907011118321907011118320118001262201800000/SHAIL VIHAR RISHIKESH       00
1635146075182119560723   00000000000010000001534001003328MATVAR SINGH MANWAL       0016DOIWALA                  ID0000000005000001907011128191907011128190063002862201800000/SAI MANDIR, DEHRADU         00
1709116075182101882127   00000000000010000001534010100415MUBIN AHMAD S/O MAHMOOD HA0016DOIWALA                  ID000000000200000190701113705190701113705WC14630150458099840/HOUSE NO 126 DEHRADUN       00
1810926075182165436539   00000000000010000000234001001878MOHAN SINGH BAGDWAL S/OBHE0003SUBZIMANDI               ID0000000000500001907011148371907011148370ATM004780007000000/DISPENSARY ROAD             00
1829046075182134446445   00000000000010000001634001101117SURESH CHANDRA S/O DHARSHA0017RANIPOKHRI               ID0000000005000001907011150411907011150411062700162201800000/G N F C SCHOOL              00
1893196075182377091221   00000000000010000000334001000016P.L.KARAN                 0004DC STORE,ASTLEY HALL     IC000000001000000190701115859190701115859BPRH136680002400000/                            00
1893196075182377091221   00000000000010000000334001000016P.L.KARAN                 0004DC STORE,ASTLEY HALL     ID000000001000000190701115753190701115753BPRH136680002400000/BESTECH CENTRAL SQUARE      00
1929086075182377091221   00000000000010000000334001000016P.L.KARAN                 0004DC STORE,ASTLEY HALL     ID000000001000000190701120201190701120201DPRH136680002400000/+BESTECH CENTRAL SQUAR      00
1931066075182188262037   00000000000010000001834001000050CHANDRA KANTA PANT W/O RAJ0019RISHIKESH                IC000000000300000190701120318190701120318ID10701190000100000/                            00
1931066075182188262037   00000000000010000001834001000050CHANDRA KANTA PANT W/O RAJ0019RISHIKESH                ID000000000300000190701120213190701120213ID10701190000100000/IDBI SHYMPUR PREM NIVS      00
1938136075182377091221   00000000000010000000334001000016P.L.KARAN                 0004DC STORE,ASTLEY HALL     ID000000001000000190701120303190701120303DPRH136680002400000/+BESTECH CENTRAL SQUAR      00
1946806075182377091221   00000000000010000000334001000016P.L.KARAN                 0004DC STORE,ASTLEY HALL     ID000000000500000190701120401190701120401DPRH136680002400000/+BESTECH CENTRAL SQUAR      00
1955766075182106195707   00000000000010000001134001000796JAIPAL SINGH CHAUHANS/O JA0012VIKASNAGAR               ID000000000200000190701120500190701120500WC16610150458099840/AGGAWAR,UNION OFFICE        00
1973706075182116863302   00000000000010000001634001100523RAJESH BHATT S/O SR BHATT 0017RANIPOKHRI               ID0000000005000001907011207061907011207060118002262201800000/SBI RISHIKESH               00
2063236075182186409226   00000000000010000001834001100641RAHUL BISHT S/O JOT SINGH 0019RISHIKESH                ID000000000500000190701121732190701121732B108360080000400000/BNA HARIDWAR ROAD RISH      00
2143336075182101757279   00000000000010000001834001000712MOHD.YASAR ARAFAT S/O M.H.0019RISHIKESH                ID000000000250000190701122700190701122700UKHCB00480001300000/YBL RISHIKESH               00
2266276075182365481186   00000000000010000001134001100664VISHAL BISHNOI S/O BUDH SI0012VIKASNAGAR               ID000000001000000190701124200190701124200TKNN001081050200000/Nainital Bank               00
2278786075182365481186   00000000000010000001134001100664VISHAL BISHNOI S/O BUDH SI0012VIKASNAGAR               ID000000001000000190701124331190701124331TKNN001081050200000/Nainital Bank               00
2291356075182144547885   00000000000010000000434001100136LAXMI DEVI  W/O MANOJ KUMA0005PREMNAGAR                ID000000000100000190701124502190701124502SPCND16680000100000/TAXI STAND BHAGWAN PUR      00
2378556075182178849801   00000000000010000000634001000479LALIT KUMAR KANOJIYA S/O S0007NEHRUCOLONY              ID0000000006500001907011255371907011255370063005062201800000/SBI  SBI ATM AT DOON        00
2391006075182444174463   00000000000010000001434001000754 VIMLA DEVI W/O RAMU      0015MUSSOORIE                ID0000000000500001907011257081907011257080063006962201800000/ANBER PETROL PUMP           00
2410726075182169415836   00000000000010000000634001100999GULAB SINGH S/O SHANKAR SI0007NEHRUCOLONY              ID000000000100000190701125928190701125928SPCNR07380000100000/Eidgah                      00
2490516075182156754478   00000000000030000001115001100031SANGEETA CHAUDHARY W/O SH.0012VIKASNAGAR               ID000000000300000190701130915190701130915D510720080000400000/DHAKRANI LEHMAN HSPT        00
2516216075182146225399   00000000000010000000134001001556VIRENDER SINGH RAWAT   S/O0002DEHRADUN MAIN BRANCH     ID0000000010000001907011312341907011312340063021962201800000/SBI GMS ROAD                00
2519526075182162704749   00000000000010000000734001100246ABHA WALIA & SACHIN WALIA 0008MAJRA                    ID000000000200000190701131300190701131300SPCNR07380000100000/Eidgah                      00
2570766075182113181484   00000000000010000000734001100531RAJEEV KUMAR RASTOGI S/O M0008MAJRA                    ID000000001000000190701131931190701131931WDDN064050443200000/UBI MAJRA                   00
2574996075182133297377   00000000000010000001534001002595OM PRAKASH BHATT S/O PARES0018BHOGPUR                  ID000000001000000190701132001190701132001D309500080000400000/PNB BOPANIPOKRI DEHRAD      00
2577776075182113181484   00000000000010000000734001100531RAJEEV KUMAR RASTOGI S/O M0008MAJRA                    ID000000001000000190701132021190701132021WDDN064050443200000/UBI MAJRA                   00
2584816075182113181484   00000000000010000000734001100531RAJEEV KUMAR RASTOGI S/O M0008MAJRA                    IC000000000500000190701132228190701132228WDDN064050443200000/                            00
2584816075182113181484   00000000000010000000734001100531RAJEEV KUMAR RASTOGI S/O M0008MAJRA                    ID000000000500000190701132110190701132110WDDN064050443200000/UBI MAJRA                   00
2608676075182186263904   00000000000010000000134001002929POONAM BISHT D/O DALBEER S0002DEHRADUN MAIN BRANCH     ID000000000400000190701132410190701132410SACWJ68380000100000/KARGI CHOWK                 00
2618416075182113181484   00000000000010000000734001100531RAJEEV KUMAR RASTOGI S/O M0008MAJRA                    ID000000000500000190701132524190701132524W299000140336200000/NIRANJANPUR, DEHRADUN       00
2619986075182156048764   00000000000010000001134001000480KALA SHARMA W/O S K SHARMA0022BANJARAWALA              ID000000001000000190701132537190701132537SACWJ68380000100000/KARGI CHOWK                 00
2622906075182166817950   00000000000010000001434001000342GANESH BAHADUR S/O MAN BAH0015MUSSOORIE                ID0000000010000001907011325581907011325580068400662201800000/SBI ATM INTOUCH BRANCH      00
2654986075182137564467   00000000000010000001134001100808DEVENDRA GOSWAMI S/O SHRI 0012VIKASNAGAR               ID0000000005000001907011330061907011330061FNDHD2980000200000/BOB                         00
2670456075182143348525   00000000000010000001334001001842SANJAY GUPTA              0014CHAKRATA                 ID000000000050000190701133159190701133159D139080080000400000/HINDU NATIONAL INTER        00
2680686075182107347158   00000000000010000002034001100114VIRENDRA SINGH S/O MADHU S0021JAKHAN                   ID0000000010000001907011333181907011333180789362162201800000/SBI KUTCHERY                00
2691196075182107347158   00000000000010000002034001100114VIRENDRA SINGH S/O MADHU S0021JAKHAN                   ID0000000010000001907011334371907011334370789362162201800000/SBI KUTCHERY                00
2755076075182186809193   00000000000010000000334001000549RAJNI KANDPAL &  P. C. KAN0004DC STORE,ASTLEY HALL     ID0000000002000001907011342401907011342404959073650445600000/CORP  DEHRADUN              00
2764966075182114925574   00000000000010000001534001002071NIKITA RAWAT              0016DOIWALA                  ID000000001000000190701134355190701134355N944220080000400000/VIDHAN SABHA MARG VIDH      00
2826586075182726369203   00000000000010000001334001002697JEET SINGH                0014CHAKRATA                 ID0000000001000001907011352151907011352150125800262201800000/SBI CHAKRATA                00
2878566075189156490185   00000000000010000000434009101367RAVINDER SINGH S/O SHRI HA0005PREMNAGAR                ID0000000005000001907011359261907011359260063004962201800000/SBI  SBI ATM AT SUDHA       00
2885806075182762036211   00000000000010000001834001001816MADHU LATA DOBHAL W/O S.P.0019RISHIKESH                ID0000000010000001907011400241907011400240118001262201800000/SHAIL VIHAR RISHIKESH       00
2891286075182224712474   00000000000010000000734001001754MUJEEB BEGI S/O SHOAIB BEG0008MAJRA                    ID000000000100000190701140110190701140110WA20190150458099840/DEHRADUN MOTHAROWALA        00
3028116075182127114489   00000000000010000000334001100680PRATIMA DEVI W/O LATE PRAK0004DC STORE,ASTLEY HALL     ID000000001000000190701142027190701142027CWCW093280002400000/MUSSOORIE DIVERSION RO      00
3029426075182143348525   00000000000010000001334001001842SANJAY GUPTA              0014CHAKRATA                 ID000000000150000190701142039190701142039N537130080000400000/CLOCK TOWER RAJPUR ROA      00
3030866075182184887837   00000000000010000001134001003100SUSHILA GURANG W/O M S GUR0012VIKASNAGAR               ID000000000500000190701142052190701142052N642110080000400000/BALLUPUR CHOWK CHAKROT      00
3034716075182127114489   00000000000010000000334001100680PRATIMA DEVI W/O LATE PRAK0004DC STORE,ASTLEY HALL     ID000000001000000190701142126190701142126CWCW093280002400000/MUSSOORIE DIVERSION RO      00
3043306075182198179452   00000000000010000000134001004984GIZALA PARVEEN W/O ZISHAN 0002DEHRADUN MAIN BRANCH     ID000000001000000190701142244190701142244P1TNDN0380002500000/SASTRADHRA CROSSNG OAT      00
3044676075182132723407   00000000000010000000134001004644SHWETA LAKHERA W/O VINOD K0002DEHRADUN MAIN BRANCH     ID000000001000000190701142258190701142258ADDN901250443200000/UBI PREM NAGAR              00
3048586075182145527373   00000000000010000001434001000962RAJESH KUMAR BHARDWAJ     0015MUSSOORIE                ID000000000300000190701142335190701142335HDDN001050443200000/UBI LANDOUR MUSSOORIE       00
3052646075182190801301   00000000000010000001234001101096MAMTA D/O GYAN SINGH      0013KALSI                    ID0000000010000001907011424111907011424110313300162201800000/SBI  SBI KALSI DEHRAD       00
3068386075182191827834   00000000000010000000234001100639SONIA RAI D/O JANG BAHADUR0003SUBZIMANDI               ID000000000100000190701142624190701142624DEN1085180001600000/DEHRADUN ONSITE             00
3077066075182173843882   00000000000010000000134001005738KUSHUM LATA BUDAKOTI W/O S0002DEHRADUN MAIN BRANCH     ID0000000010000001907011427401907011427400063008362201800000/DARSHAN LAL CHOWK 2ND       00
3100336075182114873618   00000000000010000001534001000340DINESH SINGH RAWAT        0016DOIWALA                  ID000000001000000190701143114190701143114ALD0156180000900000/DEHRADUN                    00
3134776075182142184384   00000000000010000001934001001374BEENA RAWAT W/O SH VIJAYPA0020SHYAMPUR                 ID000000001000000190701143636190701143636S1ANDQ0180002500000/DEHRADUN BR                 00
3190556075182563593014   00000000000010000000934001100025SUDHIR SINGH S/O LATE SH. 0010SELAKUI                  ID000000000500000190701144504190701144504SECNG29180000100000/NIVASI BUS STAND            00
3202706075182563593014   00000000000010000000934001100025SUDHIR SINGH S/O LATE SH. 0010SELAKUI                  ID000000000150000190701144652190701144652SECNG29180000100000/NIVASI BUS STAND            00
3210086075182379253134   00000000000010000001934001000017MANVENDRA SINGH RAWAT S/O 0020SHYAMPUR                 ID000000000200000190701144801190701144801UKHCC00180001300000/YBL SYNERGY INSTIT          00
3217956075182379253134   00000000000010000001934001000017MANVENDRA SINGH RAWAT S/O 0020SHYAMPUR                 ID000000000200000190701144915190701144915UKHCC00180001300000/YBL SYNERGY INSTIT          00
3228086075182379253134   00000000000010000001934001000017MANVENDRA SINGH RAWAT S/O 0020SHYAMPUR                 ID000000000050000190701145049190701145049N439680080000400000/SYNERGY HOSPITAL NEAR       00
3253446075182798728526   00000000000010000000134001100123MEENA KUNWAR W/O SRI JAIPA0002DEHRADUN MAIN BRANCH     ID000000000700000190701145445190701145445SACWL71580000100000/TP NAGAR                    00
3332046075182108220206   00000000000010000000134001003279MANISHA  MAMGAIN W/O MR TA0002DEHRADUN MAIN BRANCH     ID0000000010000001907011506581907011506585579254760153000000/AJABPUR KALAN               00
3444096075182130746681   00000000000010000001734001100249BALJIT SINGH S/O RAM SINGH0018BHOGPUR                  ID000000000400000190701152429190701152429MPZ0486081014600000/SUBASH NAGAR                00
3502636075182176021940   00000000000010000000134001003650GEETA KALA W/O CHANDRA KIS0002DEHRADUN MAIN BRANCH     ID000000000500000190701153332190701153332TKIN026281050200000/Haridwar Road, Dehradu      00
3516956075182176021940   00000000000010000000134001003650GEETA KALA W/O CHANDRA KIS0002DEHRADUN MAIN BRANCH     ID000000000500000190701153543190701153543TKIN045581050200000/Dehradun1                   00
3549036075182131227079   00000000000010000001134001000633VANDANA VERMA             0012VIKASNAGAR               ID0000000010000001907011540551907011540551FDDHD2680000200000/BOB                         00
3560806075182128805309   00000000000010000001134001001834GEETA JOSHI W/O RAJESH JOS0012VIKASNAGAR               ID000000000100000190701154249190701154249LWCW219180002400000/+GOREGAON LINK ROAD CD      00
3597296075189181502624   00000000000010000001134009100339DUNI CHAND S/O RATAN SINGH0012VIKASNAGAR               ID000000000050000190701154837190701154837WC16040150458099840/KHASRA NO-281,PO-HERBE      00
3598026075182001682585   00000000000010000000134001006672SUNITA ADHLAKHA           0002DEHRADUN MAIN BRANCH     ID000000000800000190701154844190701154844VW71120150446100000/DEHRADUN                    00
3613576075182135295478   00000000000030000001515001100006RAJKUMAR S/O RODA SINGH   0016DOIWALA                  ID0000000010000001907011551061907011551060800062162201800000/RECYCLER DOIWALA            00
3673186075182192155342   00000000000030000000115001100013OM PRAKASH MAURYA S/O SH D0002DEHRADUN MAIN BRANCH     ID0000000010000001907011600261907011600260063005062201800000/SBI  SBI ATM AT DOON        00
3679506075182192155342   00000000000030000000115001100013OM PRAKASH MAURYA S/O SH D0002DEHRADUN MAIN BRANCH     ID0000000010000001907011601241907011601240063005062201800000/SBI  SBI ATM AT DOON        00
3736776075182118185092   00000000000010000000134001100854RUBYNA KHAN DO MOHD KHALD 0002DEHRADUN MAIN BRANCH     ID0000000000500001907011610271907011610272726727660153000000/DHARMAPUR-SHASTRI NGR       00
3744366075182118185092   00000000000010000000134001100854RUBYNA KHAN DO MOHD KHALD 0002DEHRADUN MAIN BRANCH     ID0000000001500001907011611421907011611422726727660153000000/DHARMAPUR-SHASTRI NGR       00
3811306075182169360156   00000000000010000000134001004864DEEPAK SETHI S/O LAXMAN DA0002DEHRADUN MAIN BRANCH     ID0000000005000001907011621591907011621595600370181010700000/KNSB NIRANJANPUR ATM        00
3843286075182594104500   00000000000010000001234001100339PRITI JOSHI D/O MADAN MOHA0002DEHRADUN MAIN BRANCH     ID0000000010000001907011627031907011627030058500162201800000/SBI  KOTDWARA               00
3868636075182133723984   00000000000010000000134001002874SABEENA W/O SHAMSHAD ALI  0002DEHRADUN MAIN BRANCH     ID000000000500000190701163059190701163059TKIN041381050200000/Kutchry Road  Dehradun      00
3878846075182133723984   00000000000010000000134001002874SABEENA W/O SHAMSHAD ALI  0002DEHRADUN MAIN BRANCH     ID000000000500000190701163234190701163234TKIN041381050200000/Kutchry Road  Dehradun      00
4041116075182141210669   00000000000010000001834001100687SUMAN SINGH BHANDARI S/O N0019RISHIKESH                ID0000000010000001907011657491907011657491RDNDHD080000200000/BOB                         00
4046636075182464946089   00000000000010000001534001100246NARPAL SINGH S/O SH SUKHRA0016DOIWALA                  ID0000000010000001907011658431907011658430118002762201800000/SBI ATM  HIHT               00
4048656075182141210669   00000000000010000001834001100687SUMAN SINGH BHANDARI S/O N0019RISHIKESH                ID0000000006000001907011659021907011659021RDNDHD080000200000/BOB                         00
4054186075182464946089   00000000000010000001534001100246NARPAL SINGH S/O SH SUKHRA0016DOIWALA                  ID0000000002000001907011659561907011659560118002762201800000/SBI ATM  HIHT               00
4054626075182141210669   00000000000010000001834001100687SUMAN SINGH BHANDARI S/O N0019RISHIKESH                ID0000000000500001907011700001907011700001RDNDHD080000200000/BOB                         00
4057786075189146224900   00000000000010000001534009101238DHARAM SINGH S/O LAUTI RAM0016DOIWALA                  ID0000000001000001907011700291907011700290063006462201800000/ITBP CAMPUS                 00
4062946075182177424861   00000000000010000001834001100633RAMESH BUTOLA S/O SURENDRA0019RISHIKESH                ID000000001000000190701170114190701170114MPZ0076281069700000/AMITGRAM GUMANI             00
4072076075189133455392   00000000000010000001934009100146VEER CHAND S/O PREM CHAND 0020SHYAMPUR                 ID000000000050000190701170237190701170237N701110080000400000/SACHIVALAYAUTTRAKHAND       00
4081176075182193980664   00000000000030000001815002100005SURAJ TIWARI S/O SHRI BHAR0020SHYAMPUR                 ID000000000060000190701170358190701170358RAN4062481102400000/Shyampur                    00
4148546075182154125440   00000000000010000001934001001740MANGAL SINGH S/O SH PHOOL 0020SHYAMPUR                 ID000000000500000190701171358190701171358ID10701190000100000/IDBI SHYMPUR PREM NIVS      00
4158316075182165826903   00000000000010000000134001001827DINESH NAUTIYAL S/O PD NAU0002DEHRADUN MAIN BRANCH     ID0000000001000001907011715241907011715240063010162201800000/NEAR CMI HOSPITAL           00
4224246075182126559106   00000000000010000001534001000452ANITA  BALODI             0016DOIWALA                  ID000000001000000190701172501190701172501PC19171150458099840/KAILASH HEALTHCARE LTD      00
4240936075182119271115   00000000000010000000134001001892SANGEETA  ASWAL W/O DINESH0002DEHRADUN MAIN BRANCH     ID000000001000000190701172726190701172726DEN1085180001600000/DEHRADUN ONSITE             00
4244006075182105586799   00000000000010000000134001006644BABITA BHANDARI W/O BS BHA0002DEHRADUN MAIN BRANCH     ID0000000010000001907011727531907011727531340400162201800000/NEHRU COLONY                00
4244586075182179995504   00000000000010000001834001100616NEHA BANGWAL W/O DEEPAK BA0019RISHIKESH                ID0000000001000001907011727571907011727570118001862201800000/SBI 45 TILAK RD RISHIK      00
4266136075182128848812   00000000000010000000234001001868MANJU KATHAIT RAWAT W/O MR0022BANJARAWALA              ID000000000150000190701173113190701173113HF15320080000400000/POLICE LINE RACE COURS      00
4378926075189194943658   00000000000010000001534001000310VIDHYA DEVI W/O LATE SH.  0016DOIWALA                  ID000000001000000190701174749190701174749N116200080000400000/BHOGPUR DEHRADUN            00
4413326075182151303511   00000000000010000000334001100467BHUPENDRA SINGH S/O SH HUK0004DC STORE,ASTLEY HALL     ID000000000150000190701175243190701175243L241800140336200000/HARIDWAR ROAD,DEHRADUN      00
4427676075182117263395   00000000000030000000515001100009NAWNHAR SINGH S/O GANGARAM0006RAIPUR                   ID0000000001000001907011754391907011754390063024662201800000/SBI PANDITWARI              00
4466146075182112489789   00000000000010000001234001100349BALBEER SINGH S/O BUDHDHI 0013KALSI                    ID0000000010000001907011800021907011800020680500162201800000/SBI DAMTHA                  00
4473676075182142442014   00000000000010000001534001003367JASPAL SINGH BALESH (E OR 0016DOIWALA                  ID000000000200000190701180106190701180106MN00540950459400000/INDUSIND BANK LIMITED       00
4479686075182499078437   00000000000010000000334001000531SANJEEV SEMWAL S/O DATARAM0004DC STORE,ASTLEY HALL     ID000000001000000190701180156190701180156S1ANDQ0180002500000/DEHRADUN BR                 00
4487026075182499078437   00000000000010000000334001000531SANJEEV SEMWAL S/O DATARAM0004DC STORE,ASTLEY HALL     ID000000001000000190701180256190701180256S1ANDQ0180002500000/DEHRADUN BR                 00
4487346075182170311040   00000000000010000002334001100198RAMAWATI DEVI W/O DAYA SHA0024RAIWALA                  ID000000000200000190701180259190701180259MPZ0342081069700000/MIRHIRIYA VILL              00
4510726075182187125987   00000000000010000001534001002562SUKHVINDER KAUR W/O HARJIN0016DOIWALA                  ID000000000900000190701180613190701180613WC14630150458099840/HOUSE NO 126 DEHRADUN       00
4519856075182138703858   00000000000010000001734001001335PRADEEP BARTHWAL S/O BALWA0018BHOGPUR                  ID000000001000000190701180736190701180736NC44220080000400000/OPP. MUSSORIE BY PASS       00
4526636075182138703858   00000000000010000001734001001335PRADEEP BARTHWAL S/O BALWA0018BHOGPUR                  ID000000000200000190701180835190701180835NC44220080000400000/OPP. MUSSORIE BY PASS       00
4533146075182143348525   00000000000010000001334001001842SANJAY GUPTA              0014CHAKRATA                 ID000000000050000190701180927190701180927D139080080000400000/HINDU NATIONAL INTER        00
4537256075182124477335   00000000000010000001534010100403SADIQ HUSSAIN S/O MAHMOOD 0016DOIWALA                  ID0000000010000001907011810021907011810020063003062201800000/SBI  MIYAWAL CHOWK, H       00
4543986075182124477335   00000000000010000001534010100403SADIQ HUSSAIN S/O MAHMOOD 0016DOIWALA                  ID0000000004500001907011811001907011811000063003062201800000/SBI  MIYAWAL CHOWK, H       00
4577316075182142442543   00000000000010000001834001100453AYUSHI MAMGAIN D/O LAKHI R0019RISHIKESH                ID000000000040000190701181551190701181551SACWF77980000100000/JALANDHAR BUS STAND         00
4621986075182103542562   00000000000010000001934002101588RAHUL KUMAR U/G PURANLAL  0020SHYAMPUR                 ID000000000050000190701182204190701182204ID10701190000100000/IDBI SHYMPUR PREM NIVS      00
4659766075182104438265   00000000000030000000415001100003VIDHYA WATI BHATT D/O KHEM0005PREMNAGAR                ID0000000010000001907011827251907011827250063024362201800000/SBI, DHARTAWALA             00
4665476075182104438265   00000000000030000000415001100003VIDHYA WATI BHATT D/O KHEM0005PREMNAGAR                ID0000000010000001907011828131907011828130063024362201800000/SBI, DHARTAWALA             00
4665976075182188682960   00000000000010000000134001005211DINESHWARI NEGI W/O DR RAJ0002DEHRADUN MAIN BRANCH     ID000000000500000190701182817190701182817NB44220080000400000/PANWAR FILLING STATION      00
4665996075182172688692   00000000000010000002134001100188REKHA MAITHANI W/O OMPRAKA0022BANJARAWALA              ID0000000010000001907011828171907011828171FNDHD2880000200000/BOB                         00
4677596075182152488691   00000000000010000001834001100450SAURABH BHATT S/O SATYA PR0019RISHIKESH                ID000000000050000190701182959190701182959S1CWK64780000100000/+NAYA BANS SEC 15           00
4677616075182119247875   00000000000010000000334001000446MAN BIRENDRA SINGH BANDARI0004DC STORE,ASTLEY HALL     ID000000001000000190701182959190701182959ID17670190000100000/IDBI NANURKHERA             00
4678076075182172688692   00000000000010000002134001100188REKHA MAITHANI W/O OMPRAKA0022BANJARAWALA              ID0000000010000001907011830041907011830041FNDHD2880000200000/BOB                         00
4683796075182162704749   00000000000010000000734001100246ABHA WALIA & SACHIN WALIA 0008MAJRA                    ID000000001000000190701183054190701183054SPCNR07380000100000/Eidgah                      00
4691436075182162704749   00000000000010000000734001100246ABHA WALIA & SACHIN WALIA 0008MAJRA                    ID000000001000000190701183200190701183200SPCNR07380000100000/Eidgah                      00
4780816075182167858755   00000000000010000000934001100881GAUTAM NEGI  S/O SH.JEET S0010SELAKUI                  ID000000000600000190701184441190701184441PC12791150458099840/TULA INSTITUTDEHRADUN       00
4780906075182179420388   00000000000010000001634001100044SANJEEV KUMAR S/O SH SATYA0017RANIPOKHRI               ID0000000000500001907011844421907011844420800000162201800000/SBI ATM DOIWALA             00
4842226075182118902686   00000000000010000001034001101268AMAN AKMAL S O MOHD IRFAN 0011SAHASPUR                 ID0000000010000001907011853171907011853171RDNBLY180000200000/BOB                         00
4851936075182118902686   00000000000010000001034001101268AMAN AKMAL S O MOHD IRFAN 0011SAHASPUR                 ID0000000005000001907011854391907011854391RDNBLY180000200000/BOB                         00
4862036075182198862453   00000000000010000000834001100136KAUSHLENDRA SINGH  S/O. BA0009MIYAN WALA               ID0000000010000001907011856051907011856051289700162201800000/SBI  HARRAWALA              00
4867176075182198862453   00000000000010000000834001100136KAUSHLENDRA SINGH  S/O. BA0009MIYAN WALA               ID0000000010000001907011856491907011856491289700162201800000/SBI  HARRAWALA              00
4876676075182853803859   00000000000010000001134001100635SHARAFAT ALI S/O SHAHANAJ 0012VIKASNAGAR               ID000000000550000190701185815190701185815ADDN007050443200000/UBI VIKAS NAGAR             00
4888506075189167668621   00000000000010000001034009100135DINESH TIWARI S/O NARAYAN 0011SAHASPUR                 ID000000001000000190701185953190701185953D146900080000400000/PREM NAGAR NEAR PREM        00
4896766075182159307126   00000000000010000001134001000661IRSHAD AHAMAD S/O SHRI MOH0012VIKASNAGAR               ID0000000001000001907011901041907011901040800101262201800000/SBI COLLAGE RD VIKAS        00
4933546075182966933205   00000000000010000000734001001779SARITA W/O ASHOK KUMAR    0008MAJRA                    ID0000000000300001907011906181907011906180AGZ903780002700000/SHIMLA BYPASS  MAJRA        00
4972666075182166906969   00000000000010000001234001100387BEERENDRA SINGH S/O SH BHA0013KALSI                    ID000000001000000190701191205190701191205SACWJ59680000100000/KANWALI ROAD                00
4977996075182151495952   00000000000010000000134001100289SATISH KUMAR S/O SH RAM LA0002DEHRADUN MAIN BRANCH     ID000000000500000190701191250190701191250N279170080000400000/BSNL LAXMI RD ENCLAVE       00
4984206075182012775071   00000000000010000001234001100104PRADEEP KUMAR S/O HARI SIN0016DOIWALA                  ID0000000000500001907011913441907011913444551250281021200000/MAZRI GRANT RISHIKESH       00
5009076075182181920748   00000000000010000001534001100114POONAM KUMAR W/O SANJEEV K0016DOIWALA                  ID0000000010000001907011917151907011917150118002262201800000/SBI RISHIKESH               00
5031846075189171671868   00000000000010000001134009100789GOPI CHAND S/O MANGAT RAM 0012VIKASNAGAR               ID0000000010000001907011920341907011920345060192950445600000/CORP VIKASNAGAR             00
5037336075189171671868   00000000000010000001134009100789GOPI CHAND S/O MANGAT RAM 0012VIKASNAGAR               ID0000000004000001907011921191907011921195060192950445600000/CORP VIKASNAGAR             00
5057986075182175093817   00000000000010000001834001100491SAPNA SINGH D/O UDAY SINGH0019RISHIKESH                ID000000000200000190701192413190701192413TAAN022581019700000/Bapugram Rishikesh De       00
5070766075182164329198   00000000000010000000134001006582MADHU BAINJWAL W/O MM BAIN0002DEHRADUN MAIN BRANCH     ID0000000010000001907011926021907011926025020174950445600000/CORP DEHRADUN               00
5072186075182147548542   00000000000010000001534001001763KULDEEP SINGH S/O SH DALJE0016DOIWALA                  ID000000000050000190701192616190701192616PR11680190000100000/IDBI RISHIKESH ROAD         00
5078066075182182291743   00000000000010000000134001001080KRISHNA KHURANA W/O JAGDIS0002DEHRADUN MAIN BRANCH     ID000000000200000190701192707190701192707P3AWND2280002500000/+AMRAPALI PLATINUM          00
5082066075182164329198   00000000000010000000134001006582MADHU BAINJWAL W/O MM BAIN0002DEHRADUN MAIN BRANCH     ID0000000010000001907011927441907011927445020174950445600000/CORP DEHRADUN               00
5102806075182166531031   00000000000010000001034001100573PRABHAT NEGI S/LO BABU NEG0011SAHASPUR                 ID0000000005000001907011930441907011930440063010662201800000/SELAQUI                     00
5109556075182333103250   00000000000010000001234001100368NEEMA MAMGAIN W/O AASHISH 0013KALSI                    ID0000000010000001907011931451907011931450800101262201800000/SBI COLLAGE RD VIKAS        00
5136926075182116305411   00000000000030000001315001100007BIJENRER SINGH S/O MEJAR S0014CHAKRATA                 ID000000001000000190701193553190701193553DPRH280280002400000/+VIKAS NAGAR IAD            00
5162966075182125918485   00000000000010000001934001002066MANPREET SINGH RANDHAWA S/0020SHYAMPUR                 ID000000000400000190701193945190701193945ID10701190000100000/IDBI SHYMPUR PREM NIVS      00
5184836075182137778307   00000000000010000001234001100750GYAN SINGH SHARMA S/O MOTI0013KALSI                    ID0000000010000001907011943011907011943010800101262201800000/SBI COLLAGE RD VIKAS        00
5203696075182116492870   00000000000010000001934001100921VISHAN DEI W/O RAJENDRA SI0020SHYAMPUR                 ID0000000004000001907011945501907011945500118000462201800000/SHYAM PUR  RISHIKESH        00
5209036075182183900813   00000000000010000000134001005929SADHNA SATI W/O R P SATI  0002DEHRADUN MAIN BRANCH     ID000000001000000190701194636190701194636S1ANDQ0380002500000/DEHRADUN OATM               00
5210276075182133749526   00000000000010000000534001001028CHITRA SHARMA W/O KAILASH 0006RAIPUR                   ID000000000050000190701194646190701194646N272220080000400000/SHOP NO8 NEW AREA SHOP      00
5218826075182195697308   00000000000010000001534001100150MANJU RAWAT D/O SH KHEM SI0016DOIWALA                  ID000000000200000190701194804190701194804NB15320080000400000/D-26 NEHRU COLONY           00
5219126075182183900813   00000000000010000000134001005929SADHNA SATI W/O R P SATI  0002DEHRADUN MAIN BRANCH     ID000000001000000190701194806190701194806S1ANDQ0380002500000/DEHRADUN OATM               00
5222306075182180286265   00000000000010000000734001100470DHARM RAJ SHARMA S/O RAMDA0008MAJRA                    ID0000000000200001907011948351907011948350063023062201800000/SBI PATEL NAGAR             00
5230626075182144640524   00000000000010000001934002100080PRIYA D/O SUDAMA          0020SHYAMPUR                 ID000000000050000190701194953190701194953S1CWK21680000100000/+NAVA HOUSE MARINE LIN      00
5237446075182121412061   00000000000010000001234001000648PRADEEP KUMAR             0013KALSI                    ID000000000500000190701195055190701195055D415160080000400000/PATEL NAGAR 2 248001        00
5241536075182191789380   00000000000010000001234001001662NIRMALA JOSHI W/O JAIDUTT 0013KALSI                    ID0000000003000001907011951341907011951340800101262201800000/SBI COLLAGE RD VIKAS        00
5255086075182199219471   00000000000010000000634001000119VIJAY LAXMI SAJWAN  W/O SH0007NEHRUCOLONY              ID0000000010000001907011953381907011953382726304660153000000/DEHRADUN SHASTRINAGAR       00
5256166075182121906153   00000000000010000001734001002380AKHILESH KUMAR S/O DATA RA0018BHOGPUR                  ID0000000010000001907011953491907011953490063010262201800000/MAJRI, IIP TOWNSHIP         00
5265476075182199219471   00000000000010000000634001000119VIJAY LAXMI SAJWAN  W/O SH0007NEHRUCOLONY              ID0000000002000001907011955181907011955182726304660153000000/DEHRADUN SHASTRINAGAR       00
5281266075189172776450   00000000000010000001134009100399VIJAY SINGH S/O SH. SURAT 0012VIKASNAGAR               ID000000000300000190701195751190701195751WC16040150458099840/KHASRA NO-281,PO-HERBE      00
5291956075181129465774   00000000000010000001534025100003MANISH SARAS              0016DOIWALA                  ID0000000002000001907011959341907011959340063024362201800000/SBI, DHARTAWALA             00
5295066075182110079079   00000000000010000001834001000924PRITAM SINGH S/O LT.PUNNA 0019RISHIKESH                ID000000001000000190701200005190701200005CWCW156180002400000/PARTEET NAGAR               00
5302176075182110079079   00000000000010000001834001000924PRITAM SINGH S/O LT.PUNNA 0019RISHIKESH                ID000000001000000190701200115190701200115CWCW156180002400000/PARTEET NAGAR               00
5307816075182110079079   00000000000010000001834001000924PRITAM SINGH S/O LT.PUNNA 0019RISHIKESH                ID000000000500000190701200213190701200213CWCW156180002400000/PARTEET NAGAR               00
5325796075182190650070   00000000000010000002234001100024SWATI W/O YOGESH MISHRA   0023JOLLY BRANCH             ID000000000200000190701200517190701200517SPCNL18080000100000/+NYAY KHAND 2 INDRAPUR      00
5338336075182160344423   00000000000010000001234001101126RAJENDRA LAL SHAH S/O SATE0013KALSI                    ID000000000100000190701200729190701200729N808860080000400000/MAIN MARKET VIKAS NGR       00
5347276075182127152224   00000000000010000001634001000254NAGENDRA DUTT JUYAL       0017RANIPOKHRI               IC0000000010000001907012010511907012010512726727660153000000/                            00
5347276075182127152224   00000000000010000001634001000254NAGENDRA DUTT JUYAL       0017RANIPOKHRI               ID0000000010000001907012009081907012009082726727660153000000/DHARMAPUR-SHASTRI NGR       00
5369066075182127152224   00000000000010000001634001000254NAGENDRA DUTT JUYAL       0017RANIPOKHRI               IC0000000010000001907012014381907012014382726727660153000000/                            00
5369066075182127152224   00000000000010000001634001000254NAGENDRA DUTT JUYAL       0017RANIPOKHRI               ID0000000010000001907012012551907012012552726727660153000000/DHARMAPUR-SHASTRI NGR       00
5377786075182140358576   00000000000010000001234001000649ANIL KUMAR GUSAIN S/O MR B0010SELAKUI                  ID000000001000000190701201429190701201429N411010080000400000/BHAUWALA 2ND ATM            00
5383076075182107750021   00000000000010000000734010100305RAMESHWAR SINGH RANA S/O R0008MAJRA                    ID0000000000500001907012015241907012015240063021962201800000/SBI GMS ROAD                00
5384526075182140358576   00000000000010000001234001000649ANIL KUMAR GUSAIN S/O MR B0010SELAKUI                  ID000000001000000190701201539190701201539N411010080000400000/BHAUWALA 2ND ATM            00
5396616075182798525484   00000000000010000000434001001294ANJU SHARMA W/O SH. ARVIND0005PREMNAGAR                ID000000001000000190701201749190701201749SPCNC98180000100000/MOHANPUR PREM NAGAR         00
5397406075182131584842   00000000000010000001234001101125VINITA D/O GYAN SINGH     0013KALSI                    ID000000000050000190701201757190701201757N213260080000400000/BIASNEHRI HARIPUR           00
5409116075182176035973   00000000000010000002234001100198ROHIT KUMAR SO GHANSHYAM S0023JOLLY BRANCH             ID000000000050000190701202000190701202000TAAN667481019700000/NainitalHaldwani-cum-K      00
5425386075182992798853   00000000000010000001834001100420KETTAN SHARMA S/O LT.NAGES0019RISHIKESH                ID0000000010000001907012023001907012023000118001662201800000/SBI LAXMAN JHOOLA           00
5434936075182992798853   00000000000010000001834001100420KETTAN SHARMA S/O LT.NAGES0019RISHIKESH                ID0000000005500001907012024511907012024510118001662201800000/SBI LAXMAN JHOOLA           00
5486176075182138000735   00000000000010000001534001002479KUSUM UNIYAL W/O SANJEEV U0007NEHRUCOLONY              ID000000000100000190701203505190701203505BPRH267580002400000/HARIDWAR ROAD               00
5493386075182138000735   00000000000010000001534001002479KUSUM UNIYAL W/O SANJEEV U0007NEHRUCOLONY              ID000000000900000190701203628190701203628BPRH267580002400000/HARIDWAR ROAD               00
5516956075182103829241   00000000000010000000334001001800SHOBHA W/O RAJESH         0004DC STORE,ASTLEY HALL     ID000000000300000190701204130190701204130S1CNE37080000100000/KARANPUR                    00
5517936075182853803859   00000000000010000001134001100635SHARAFAT ALI S/O SHAHANAJ 0012VIKASNAGAR               ID000000000650000190701204142190701204142ADDN007050443200000/UBI VIKAS NAGAR             00
5532486075182142779985   00000000000030000001315001100021JUBEDA RUHI W/O FARUK ALI 0014CHAKRATA                 ID000000000400000190701204448190701204448WA09300150458099840/DAKPATHER    DEHRADUN       00
5545856075182364345515   00000000000010000001834001003126SUMITA PANWAR W/O KISHAN S0019RISHIKESH                ID0000000010000001907012047471907012047470182762162201800000/SBI RECYCLER VIRBHADRA      00
5547836075182183150856   00000000000010000001134001000816SAVITA PANDEY W/O MOHIT JU0012VIKASNAGAR               ID0000000010000001907012048121907012048120063005762201800000/+KARGI CHOWK                00
5586406075182137204759   00000000000010000001634001000205SUBODH CHAUHAN S/O MAHENDE0017RANIPOKHRI               ID000000000150000190701205743190701205743D309500080000400000/PNB BOPANIPOKRI DEHRAD      00
5587346075182117558984   00000000000010000001934001000258AJAY DABRAL S/O  KEDAR DUT0020SHYAMPUR                 ID0000000010000001907012057561907012057560118000462201800000/SHYAM PUR  RISHIKESH        00
5590386075182117558984   00000000000010000001934001000258AJAY DABRAL S/O  KEDAR DUT0020SHYAMPUR                 ID0000000008000001907012058431907012058430118000462201800000/SHYAM PUR  RISHIKESH        00
5604296075189161138548   00000000000010000001334009100986JUMAN SINGH SO PREM SINGH 0014CHAKRATA                 ID0000000010000001907012102261907012102260800101262201800000/SBI COLLAGE RD VIKAS        00
5613676075182224712474   00000000000010000000734001001754MUJEEB BEGI S/O SHOAIB BEG0008MAJRA                    ID0000000000500001907012105061907012105060063021562201800000/SBI NIRANJANPUR             00
5615206075182173266324   00000000000010000000134001100763KAMAL  CHANDRA SANWAL S/O 0002DEHRADUN MAIN BRANCH     ID0000000000500001907012105331907012105330069701262201800000/KHASRA NO 353               00
5634566075182691555307   00000000000010000001834001100415DEVENDRA BYAS S/O SATYANAN0019RISHIKESH                ID000000001000000190701211134190701211134L205600140336200000/RISHIKESH,UK                00
5646326075182129619253   00000000000010000002034001100378SANGEETA CHHETRI W/O DIL B0021JAKHAN                   ID000000001000000190701211514190701211514N844560080000400000/NAYAGAON BARKHALA           00
5651036075182129619253   00000000000010000002034001100378SANGEETA CHHETRI W/O DIL B0021JAKHAN                   ID000000001000000190701211650190701211650N844560080000400000/NAYAGAON BARKHALA           00
5653186075182174372345   00000000000010000000934001100152ASHISH KUMAR  S/O SH.YOGEN0010SELAKUI                  ID000000000050000190701211729190701211729S1ACDH4980002500000/DEHRADUN PREM NGR OATM      00
5664296075182137073600   00000000000010000000134001007547NARAIN SINGH RAWAT        0002DEHRADUN MAIN BRANCH     ID000000001000000190701212124190701212124S1ACDH4980002500000/DEHRADUN PREM NGR OATM      00
5697026075182170574654   00000000000020000000235001100039MANIK ASSOCIATES [PROP]SAN0003SUBZIMANDI               ID0000000003000001907012134001907012134000063003462201800000/OLD CONNAUGHT PLACE         00
5722346075182137313188   00000000000010000001734001001053SANTOSH W/O KHEM SINGH    0018BHOGPUR                  ID0000000002000001907012145231907012145230063010562201800000/DHARAMPUR                   00
5731536075182149887641   00000000000010000000134001004383ANITA AGARWAL W/O SH RAJEE0002DEHRADUN MAIN BRANCH     ID0000000007000001907012149471907012149470AGZ903780002700000/SHIMLA BYPASS  MAJRA        00
5797556075182164561865   00000000000010000001134025100001RAJEEV SINGH NEGI S/O BIKR0002DEHRADUN MAIN BRANCH     ID000000000500000190701223920190701223920TKNN000981050200000/Purola Uttarkashi           00
5818116075182124167241   00000000000010000000134001005112UMA RAWAT W/O ARVIND KISHO0002DEHRADUN MAIN BRANCH     ID0000000010000001907012311121907012311120158493060153000000/+RAILWAY NEW DELHI          00
5818646075182124167241   00000000000010000000134001005112UMA RAWAT W/O ARVIND KISHO0002DEHRADUN MAIN BRANCH     ID0000000010000001907012312271907012312270158493060153000000/+RAILWAY NEW DELHI          00
5819796075182124167241   00000000000010000000134001005112UMA RAWAT W/O ARVIND KISHO0002DEHRADUN MAIN BRANCH     ID0000000004000001907012314351907012314350158493060153000000/+RAILWAY NEW DELHI          00
