0938946074310003505774   00000000000000000090015020001001ACQUIRER ATM TRANSACTION  0001HEAD OFFICE              AD0000000002000001907010951101907010951109109300522220000000/RISHIKESH                   00
0949494357085018309890   00000000000000000090015020001001ACQUIRER ATM TRANSACTION  0001HEAD OFFICE              AD0000000002000001907010953111907010953119109300422220000000/MAIN BAZAR VIKAS NAGAR      00
0956356521515020050120   00000000000000000090015020001001ACQUIRER ATM TRANSACTION  0001HEAD OFFICE              AD0000000005000001907010954271907010954279109300422220000000/MAIN BAZAR VIKAS NAGAR      00
0960636070936069005335   00000000000000000090015020001001ACQUIRER ATM TRANSACTION  0001HEAD OFFICE              AD0000000001500001907010955181907010955189109300522220000000/RISHIKESH                   00
0968486070936069005335   00000000000000000090015020001001ACQUIRER ATM TRANSACTION  0001HEAD OFFICE              AD0000000000500001907010956401907010956409109300522220000000/RISHIKESH                   00
1000444591150344066030   00000000000000000090015020001001ACQUIRER ATM TRANSACTION  0001HEAD OFFICE              AD0000000003000001907011002211907011002219109300522220000000/RISHIKESH                   00
1006406074310132842270   00000000000000000090015020001001ACQUIRER ATM TRANSACTION  0001HEAD OFFICE              AD0000000002000001907011003221907011003229109300522220000000/RISHIKESH                   00
1021496071970286009639   00000000000000000090015020001001ACQUIRER ATM TRANSACTION  0001HEAD OFFICE              AD0000000010000001907011006041907011006049109300522220000000/RISHIKESH                   00
1056984591150383895588   00000000000000000090015020001001ACQUIRER ATM TRANSACTION  0001HEAD OFFICE              AD0000000000900001907011011571907011011579109300522220000000/RISHIKESH                   00
1057305103720079133706   00000000000000000090015020001001ACQUIRER ATM TRANSACTION  0001HEAD OFFICE              AD0000000009000001907011012031907011012039109300922220000000/KALSI                       00
1095724591150293793915   00000000000000000090015020001001ACQUIRER ATM TRANSACTION  0001HEAD OFFICE              AD0000000002000001907011018191907011018199109300522220000000/RISHIKESH                   00
1103836079520200161073   00000000000000000090015020001001ACQUIRER ATM TRANSACTION  0001HEAD OFFICE              AD0000000003000001907011019401907011019409109300922220000000/KALSI                       00
1109426070936158266384   00000000000000000090015020001001ACQUIRER ATM TRANSACTION  0001HEAD OFFICE              AD0000000010000001907011020271907011020279109300522220000000/RISHIKESH                   00
1248926070936147331752   00000000000000000090015020001001ACQUIRER ATM TRANSACTION  0001HEAD OFFICE              AD0000000008000001907011040381907011040389109300522220000000/RISHIKESH                   00
1256155103720418588388   00000000000000000090015020001001ACQUIRER ATM TRANSACTION  0001HEAD OFFICE              AD0000000002000001907011041441907011041449109300422220000000/MAIN BAZAR VIKAS NAGAR      00
1296796521830906189326   00000000000000000090015020001001ACQUIRER ATM TRANSACTION  0001HEAD OFFICE              AD0000000001700001907011046551907011046559109301322220000000/DCBLTD COURT2 COM.D.DU      00
1302026070936125161122   00000000000000000090015020001001ACQUIRER ATM TRANSACTION  0001HEAD OFFICE              AD0000000006000001907011047511907011047519109300522220000000/RISHIKESH                   00
1304956521830911775374   00000000000000000090015020001001ACQUIRER ATM TRANSACTION  0001HEAD OFFICE              AD0000000000500001907011048031907011048039109301322220000000/DCBLTD COURT2 COM.D.DU      00
1309066080320006546735   00000000000000000090015020001001ACQUIRER ATM TRANSACTION  0001HEAD OFFICE              AD0000000001000001907011048391907011048399109301022220000000/CHAKRATA ROAD               00
1311646070936125161122   00000000000000000090015020001001ACQUIRER ATM TRANSACTION  0001HEAD OFFICE              AD0000000004000001907011048551907011048559109300522220000000/RISHIKESH                   00
1314016081710524009654   00000000000000000090015020001001ACQUIRER ATM TRANSACTION  0001HEAD OFFICE              AD0000000004500001907011049161907011049169109300422220000000/MAIN BAZAR VIKAS NAGAR      00
1327896081712070000772   00000000000000000090015020001001ACQUIRER ATM TRANSACTION  0001HEAD OFFICE              AD0000000001000001907011051021907011051029109301022220000000/CHAKRATA ROAD               00
1349886075320030620792   00000000000000000090015020001001ACQUIRER ATM TRANSACTION  0001HEAD OFFICE              AD0000000002000001907011053541907011053549109300522220000000/RISHIKESH                   00
1362776081200100754972   00000000000000000090015020001001ACQUIRER ATM TRANSACTION  0001HEAD OFFICE              AD0000000001000001907011055351907011055359109300922220000000/KALSI                       00
1376256069980062154594   00000000000000000090015020001001ACQUIRER ATM TRANSACTION  0001HEAD OFFICE              AD0000000010000001907011057211907011057219109300422220000000/MAIN BAZAR VIKAS NAGAR      00
1380216074310120368387   00000000000000000090015020001001ACQUIRER ATM TRANSACTION  0001HEAD OFFICE              AD0000000010000001907011057521907011057529109300522220000000/RISHIKESH                   00
1392776074310120368387   00000000000000000090015020001001ACQUIRER ATM TRANSACTION  0001HEAD OFFICE              AD0000000010000001907011059301907011059309109300522220000000/RISHIKESH                   00
1419555089633284005098   00000000000000000090015020001001ACQUIRER ATM TRANSACTION  0001HEAD OFFICE              AD0000000001000001907011102521907011102529109300522220000000/RISHIKESH                   00
1449265172861620000147   00000000000000000090015020001001ACQUIRER ATM TRANSACTION  0001HEAD OFFICE              AD0000000010000001907011106391907011106399109301322220000000/DCBLTD COURT2 COM.D.DU      00
1452076070936146536500   00000000000000000090015020001001ACQUIRER ATM TRANSACTION  0001HEAD OFFICE              AD0000000005000001907011107001907011107009109300522220000000/RISHIKESH                   00
1459385172861620000147   00000000000000000090015020001001ACQUIRER ATM TRANSACTION  0001HEAD OFFICE              AD0000000010000001907011107511907011107519109301322220000000/DCBLTD COURT2 COM.D.DU      00
1464484722546294089751   00000000000000000090015020001001ACQUIRER ATM TRANSACTION  0001HEAD OFFICE              AD0000000010000001907011108271907011108279109300422220000000/MAIN BAZAR VIKAS NAGAR      00
1509066070936062039166   00000000000000000090015020001001ACQUIRER ATM TRANSACTION  0001HEAD OFFICE              AD0000000000500001907011114031907011114039109300522220000000/RISHIKESH                   00
1524345103728000041062   00000000000000000090015020001001ACQUIRER ATM TRANSACTION  0001HEAD OFFICE              AD0000000005000001907011116051907011116059109300522220000000/RISHIKESH                   00
1532246070936198941038   00000000000000000090015020001001ACQUIRER ATM TRANSACTION  0001HEAD OFFICE              AD0000000010000001907011117011907011117019109300522220000000/RISHIKESH                   00
1549336521661000175535   00000000000000000090015020001001ACQUIRER ATM TRANSACTION  0001HEAD OFFICE              AD0000000010000001907011119071907011119079109301022220000000/CHAKRATA ROAD               00
1552196070936194204860   00000000000000000090015020001001ACQUIRER ATM TRANSACTION  0001HEAD OFFICE              AD0000000001000001907011119281907011119289109301322220000000/DCBLTD COURT2 COM.D.DU      00
1556546521661000175535   00000000000000000090015020001001ACQUIRER ATM TRANSACTION  0001HEAD OFFICE              AD0000000010000001907011120001907011120009109301022220000000/CHAKRATA ROAD               00
1575844029855055411926   00000000000000000090015020001001ACQUIRER ATM TRANSACTION  0001HEAD OFFICE              AD0000000002000001907011122211907011122219109301022220000000/CHAKRATA ROAD               00
1594894987920404010918   00000000000000000090015020001001ACQUIRER ATM TRANSACTION  0001HEAD OFFICE              AD0000000002000001907011124371907011124379109300522220000000/RISHIKESH                   00
1596944592000085894182   00000000000000000090015020001001ACQUIRER ATM TRANSACTION  0001HEAD OFFICE              AD0000000001500001907011124531907011124539109301322220000000/DCBLTD COURT2 COM.D.DU      00
1615155103720323448082   00000000000000000090015020001001ACQUIRER ATM TRANSACTION  0001HEAD OFFICE              AD0000000005000001907011126591907011126599109301622220000000/JOLLY GRANT BHANIAWALA      00
1618096070936161248965   00000000000000000090015020001001ACQUIRER ATM TRANSACTION  0001HEAD OFFICE              AD0000000005000001907011127261907011127269109300522220000000/RISHIKESH                   00
1627065126522016352453   00000000000000000090015020001001ACQUIRER ATM TRANSACTION  0001HEAD OFFICE              AD0000000000500001907011128271907011128279109300522220000000/RISHIKESH                   00
1634395596010151063565   00000000000000000090015020001001ACQUIRER ATM TRANSACTION  0001HEAD OFFICE              AD0000000010000001907011129181907011129189109301322220000000/DCBLTD COURT2 COM.D.DU      00
1636506071977000763045   00000000000000000090015020001001ACQUIRER ATM TRANSACTION  0001HEAD OFFICE              AD0000000005000001907011129341907011129349109301022220000000/CHAKRATA ROAD               00
1654835596010122220070   00000000000000000090015020001001ACQUIRER ATM TRANSACTION  0001HEAD OFFICE              AD0000000002000001907011131451907011131459109301322220000000/DCBLTD COURT2 COM.D.DU      00
1726125126522008646359   00000000000000000090015020001001ACQUIRER ATM TRANSACTION  0001HEAD OFFICE              AD0000000000500001907011140111907011140119109300522220000000/RISHIKESH                   00
1738334592166534001826   00000000000000000090015020001001ACQUIRER ATM TRANSACTION  0001HEAD OFFICE              AD0000000000500001907011141331907011141339109300522220000000/RISHIKESH                   00
1768796081711873000211   00000000000000000090015020001001ACQUIRER ATM TRANSACTION  0001HEAD OFFICE              AD0000000010000001907011145041907011145049109301122220000000/NEHRU COLONY                00
1775306074310161454955   00000000000000000090015020001001ACQUIRER ATM TRANSACTION  0001HEAD OFFICE              AD0000000000500001907011145451907011145459109300922220000000/KALSI                       00
1779556081711873000211   00000000000000000090015020001001ACQUIRER ATM TRANSACTION  0001HEAD OFFICE              AD0000000010000001907011146161907011146169109301122220000000/NEHRU COLONY                00
1781345103720322798057   00000000000000000090015020001001ACQUIRER ATM TRANSACTION  0001HEAD OFFICE              AD0000000005000001907011146271907011146279109301322220000000/DCBLTD COURT2 COM.D.DU      00
1815024592000163789759   00000000000000000090015020001001ACQUIRER ATM TRANSACTION  0001HEAD OFFICE              AD0000000010000001907011150081907011150089109300922220000000/KALSI                       00
1824796070936138708893   00000000000000000090015020001001ACQUIRER ATM TRANSACTION  0001HEAD OFFICE              AD0000000010000001907011151201907011151209109300522220000000/RISHIKESH                   00
1842745103720276011440   00000000000000000090015020001001ACQUIRER ATM TRANSACTION  0001HEAD OFFICE              AD0000000005000001907011153161907011153169109301322220000000/DCBLTD COURT2 COM.D.DU      00
1851424786790015681800   00000000000000000090015020001001ACQUIRER ATM TRANSACTION  0001HEAD OFFICE              AD0000000010000001907011154121907011154129109300422220000000/MAIN BAZAR VIKAS NAGAR      00
1873636071970118007199   00000000000000000090015020001001ACQUIRER ATM TRANSACTION  0001HEAD OFFICE              AD0000000000100001907011156431907011156439109301122220000000/NEHRU COLONY                00
1922226521850565006579   00000000000000000090015020001001ACQUIRER ATM TRANSACTION  0001HEAD OFFICE              AD0000000001000001907011202211907011202219109300522220000000/RISHIKESH                   00
1929774722541593000708   00000000000000000090015020001001ACQUIRER ATM TRANSACTION  0001HEAD OFFICE              AD0000000001500001907011203121907011203129109301322220000000/DCBLTD COURT2 COM.D.DU      00
1981086074070100619635   00000000000000000090015020001001ACQUIRER ATM TRANSACTION  0001HEAD OFFICE              AD0000000005000001907011209041907011209049109301322220000000/DCBLTD COURT2 COM.D.DU      00
1999354592000097439984   00000000000000000090015020001001ACQUIRER ATM TRANSACTION  0001HEAD OFFICE              AD0000000001000001907011211101907011211109109300922220000000/KALSI                       00
2013886069980062154594   00000000000000000090015020001001ACQUIRER ATM TRANSACTION  0001HEAD OFFICE              AD0000000005000001907011212521907011212529109300422220000000/MAIN BAZAR VIKAS NAGAR      00
2020945126522022574736   00000000000000000090015020001001ACQUIRER ATM TRANSACTION  0001HEAD OFFICE              AC0000000001000001907011213391907011213399109301522220000000/                            00
2020945126522022574736   00000000000000000090015020001001ACQUIRER ATM TRANSACTION  0001HEAD OFFICE              AD0000000001000001907011213381907011213389109301522220000000/NEAR HANUMAN RAIWALA        00
2025776071970240013180   00000000000000000090015020001001ACQUIRER ATM TRANSACTION  0001HEAD OFFICE              AD0000000001000001907011214151907011214159109301322220000000/DCBLTD COURT2 COM.D.DU      00
2055456522091525734302   00000000000000000090015020001001ACQUIRER ATM TRANSACTION  0001HEAD OFFICE              AD0000000003000001907011217411907011217419109300522220000000/RISHIKESH                   00
2178885103720323307437   00000000000000000090015020001001ACQUIRER ATM TRANSACTION  0001HEAD OFFICE              AD0000000003000001907011232231907011232239109300422220000000/MAIN BAZAR VIKAS NAGAR      00
2183416070936101012893   00000000000000000090015020001001ACQUIRER ATM TRANSACTION  0001HEAD OFFICE              AD0000000002800001907011232591907011232599109300522220000000/RISHIKESH                   00
2218925196190287148524   00000000000000000090015020002001ACQUIRER MICRO ATM TRANSAC0001HEAD OFFICE              AD000000000150000190701123715190701123715M942997522220000000/AJABPUR JOGIWALA CHOWK      00
2222385126522010649763   00000000000000000090015020001001ACQUIRER ATM TRANSACTION  0001HEAD OFFICE              AD0000000005000001907011237411907011237419109300922220000000/KALSI                       00
2233064505020022857650   00000000000000000090015020001001ACQUIRER ATM TRANSACTION  0001HEAD OFFICE              AD0000000010000001907011238581907011238589109301122220000000/NEHRU COLONY                00
2243904505020022857650   00000000000000000090015020001001ACQUIRER ATM TRANSACTION  0001HEAD OFFICE              AD0000000010000001907011240141907011240149109301122220000000/NEHRU COLONY                00
2251094505020022857650   00000000000000000090015020001001ACQUIRER ATM TRANSACTION  0001HEAD OFFICE              AD0000000010000001907011241101907011241109109301122220000000/NEHRU COLONY                00
2265226070936021863086   00000000000000000090015020001001ACQUIRER ATM TRANSACTION  0001HEAD OFFICE              AD0000000001000001907011242561907011242569109301322220000000/DCBLTD COURT2 COM.D.DU      00
2297874591150315931071   00000000000000000090015020001001ACQUIRER ATM TRANSACTION  0001HEAD OFFICE              AD0000000007000001907011246521907011246529109301622220000000/JOLLY GRANT BHANIAWALA      00
2306045419190205032629   00000000000000000090015020001001ACQUIRER ATM TRANSACTION  0001HEAD OFFICE              AD0000000000500001907011247481907011247489109301322220000000/DCBLTD COURT2 COM.D.DU      00
2332616074310132743353   00000000000000000090015020001001ACQUIRER ATM TRANSACTION  0001HEAD OFFICE              AD0000000000200001907011251051907011251059109300522220000000/RISHIKESH                   00
2336036070936142352506   00000000000000000090015020001001ACQUIRER ATM TRANSACTION  0001HEAD OFFICE              AD0000000001000001907011251311907011251319109300422220000000/MAIN BAZAR VIKAS NAGAR      00
2357136075320316180370   00000000000000000090015020001001ACQUIRER ATM TRANSACTION  0001HEAD OFFICE              AD0000000001000001907011254071907011254079109300422220000000/MAIN BAZAR VIKAS NAGAR      00
2365986080320309742346   00000000000000000090015020001001ACQUIRER ATM TRANSACTION  0001HEAD OFFICE              AD0000000000500001907011255131907011255139109301322220000000/DCBLTD COURT2 COM.D.DU      00
2378475211120011169430   00000000000000000090015020001001ACQUIRER ATM TRANSACTION  0001HEAD OFFICE              AC0000000000500001907011256411907011256419109300622220000000/                            00
2378475211120011169430   00000000000000000090015020001001ACQUIRER ATM TRANSACTION  0001HEAD OFFICE              AD0000000000500001907011256391907011256399109300622220000000/RAIPUR                      00
2390756073562185898143   00000000000000000090015020001001ACQUIRER ATM TRANSACTION  0001HEAD OFFICE              AD0000000010000001907011258121907011258129109301622220000000/JOLLY GRANT BHANIAWALA      00
2401716070936161248106   00000000000000000090015020001001ACQUIRER ATM TRANSACTION  0001HEAD OFFICE              AD0000000005000001907011259331907011259339109301422220000000/MAIN MARKET RANIPOKHRI      00
2409625196190143874545   00000000000000000090015020001001ACQUIRER ATM TRANSACTION  0001HEAD OFFICE              AD0000000010000001907011300241907011300249109300922220000000/KALSI                       00
2417585196190143874545   00000000000000000090015020001001ACQUIRER ATM TRANSACTION  0001HEAD OFFICE              AD0000000010000001907011301251907011301259109300922220000000/KALSI                       00
2429785103728004577186   00000000000000000090015020001001ACQUIRER ATM TRANSACTION  0001HEAD OFFICE              AD0000000005000001907011302571907011302579109300922220000000/KALSI                       00
2440784592000175920061   00000000000000000090015020001001ACQUIRER ATM TRANSACTION  0001HEAD OFFICE              AD0000000001000001907011304131907011304139109301122220000000/NEHRU COLONY                00
2449174592000175920061   00000000000000000090015020001001ACQUIRER ATM TRANSACTION  0001HEAD OFFICE              AD0000000010000001907011305191907011305199109301122220000000/NEHRU COLONY                00
2456464592000175920061   00000000000000000090015020001001ACQUIRER ATM TRANSACTION  0001HEAD OFFICE              AD0000000010000001907011306101907011306109109301122220000000/NEHRU COLONY                00
2464894592000175920061   00000000000000000090015020001001ACQUIRER ATM TRANSACTION  0001HEAD OFFICE              AD0000000010000001907011307111907011307119109301122220000000/NEHRU COLONY                00
2468735103720198430280   00000000000000000090015020001001ACQUIRER ATM TRANSACTION  0001HEAD OFFICE              AD0000000001500001907011307371907011307379109300922220000000/KALSI                       00
2482336072450002618020   00000000000000000090015020001001ACQUIRER ATM TRANSACTION  0001HEAD OFFICE              AD0000000005000001907011309231907011309239109301322220000000/DCBLTD COURT2 COM.D.DU      00
2496786074310101939669   00000000000000000090015020001001ACQUIRER ATM TRANSACTION  0001HEAD OFFICE              AD0000000010000001907011311061907011311069109301322220000000/DCBLTD COURT2 COM.D.DU      00
2502245103720445946898   00000000000000000090015020001001ACQUIRER ATM TRANSACTION  0001HEAD OFFICE              AD0000000001000001907011311471907011311479109300522220000000/RISHIKESH                   00
2522416070936112952715   00000000000000000090015020001001ACQUIRER ATM TRANSACTION  0001HEAD OFFICE              AD0000000000200001907011314281907011314289109301322220000000/DCBLTD COURT2 COM.D.DU      00
2537666070936154340241   00000000000000000090015020001001ACQUIRER ATM TRANSACTION  0001HEAD OFFICE              AD0000000010000001907011316251907011316259109301322220000000/DCBLTD COURT2 COM.D.DU      00
2540556070417502353251   00000000000000000090015020001001ACQUIRER ATM TRANSACTION  0001HEAD OFFICE              AD0000000001000001907011316461907011316469109301122220000000/NEHRU COLONY                00
2550906522465010154723   00000000000000000090015020001001ACQUIRER ATM TRANSACTION  0001HEAD OFFICE              AD0000000002000001907011318071907011318079109301122220000000/NEHRU COLONY                00
2560254592000151754021   00000000000000000090015020001001ACQUIRER ATM TRANSACTION  0001HEAD OFFICE              AD0000000001000001907011319131907011319139109300422220000000/MAIN BAZAR VIKAS NAGAR      00
2562514313930008850556   00000000000000000090015020001001ACQUIRER ATM TRANSACTION  0001HEAD OFFICE              AD0000000010000001907011319291907011319299109301122220000000/NEHRU COLONY                00
2567055089252930019732   00000000000000000090015020001001ACQUIRER ATM TRANSACTION  0001HEAD OFFICE              AD0000000002000001907011320061907011320069109301322220000000/DCBLTD COURT2 COM.D.DU      00
2568284313930008850556   00000000000000000090015020001001ACQUIRER ATM TRANSACTION  0001HEAD OFFICE              AD0000000010000001907011320171907011320179109301122220000000/NEHRU COLONY                00
2588464313930008850556   00000000000000000090015020001001ACQUIRER ATM TRANSACTION  0001HEAD OFFICE              AC0000000010000001907011323161907011323169109301122220000000/                            00
2588464313930008850556   00000000000000000090015020001001ACQUIRER ATM TRANSACTION  0001HEAD OFFICE              AD0000000010000001907011322391907011322399109301122220000000/NEHRU COLONY                00
2603264313930008850556   00000000000000000090015020001001ACQUIRER ATM TRANSACTION  0001HEAD OFFICE              AD0000000004000001907011324321907011324329109301122220000000/NEHRU COLONY                00
2633475103720184799417   00000000000000000090015020001001ACQUIRER ATM TRANSACTION  0001HEAD OFFICE              AD0000000000500001907011328281907011328289109301322220000000/DCBLTD COURT2 COM.D.DU      00
2663326521515015586047   00000000000000000090015020001001ACQUIRER ATM TRANSACTION  0001HEAD OFFICE              AD0000000010000001907011332091907011332099109301022220000000/CHAKRATA ROAD               00
2689594687792163008760   00000000000000000090015020001001ACQUIRER ATM TRANSACTION  0001HEAD OFFICE              AD0000000001000001907011335301907011335309109301322220000000/DCBLTD COURT2 COM.D.DU      00
270817622018130100005727400000000000000000090015020001001ACQUIRER ATM TRANSACTION  0001HEAD OFFICE              AD0000000010000001907011337461907011337469109301622220000000/JOLLY GRANT BHANIAWALA      00
271416622018130100005727400000000000000000090015020001001ACQUIRER ATM TRANSACTION  0001HEAD OFFICE              AD0000000005000001907011338381907011338389109301622220000000/JOLLY GRANT BHANIAWALA      00
2757684214920355844427   00000000000000000090015020001001ACQUIRER ATM TRANSACTION  0001HEAD OFFICE              AD0000000001000001907011344041907011344049109301122220000000/NEHRU COLONY                00
2762645103720416252284   00000000000000000090015020001001ACQUIRER ATM TRANSACTION  0001HEAD OFFICE              AD0000000010000001907011344401907011344409109300422220000000/MAIN BAZAR VIKAS NAGAR      00
2773255103720416252284   00000000000000000090015020001001ACQUIRER ATM TRANSACTION  0001HEAD OFFICE              AD0000000010000001907011346011907011346019109300422220000000/MAIN BAZAR VIKAS NAGAR      00
2781884591150142506344   00000000000000000090015020001001ACQUIRER ATM TRANSACTION  0001HEAD OFFICE              AD0000000000500001907011347071907011347079109301322220000000/DCBLTD COURT2 COM.D.DU      00
2843256070936154094400   00000000000000000090015020001001ACQUIRER ATM TRANSACTION  0001HEAD OFFICE              AC0000000003000001907011355401907011355409109300922220000000/                            00
2843256070936154094400   00000000000000000090015020001001ACQUIRER ATM TRANSACTION  0001HEAD OFFICE              AD0000000003000001907011355391907011355399109300922220000000/KALSI                       00
2852856074310096033833   00000000000000000090015020001001ACQUIRER ATM TRANSACTION  0001HEAD OFFICE              AD0000000000500001907011356561907011356569109301322220000000/DCBLTD COURT2 COM.D.DU      00
2855776070936154094400   00000000000000000090015020001001ACQUIRER ATM TRANSACTION  0001HEAD OFFICE              AC0000000003000001907011357181907011357189109300922220000000/                            00
2855776070936154094400   00000000000000000090015020001001ACQUIRER ATM TRANSACTION  0001HEAD OFFICE              AD0000000003000001907011357171907011357179109300922220000000/KALSI                       00
2859276074310096033833   00000000000000000090015020001001ACQUIRER ATM TRANSACTION  0001HEAD OFFICE              AD0000000000100001907011357441907011357449109301322220000000/DCBLTD COURT2 COM.D.DU      00
2867436070935005661045   00000000000000000090015020001001ACQUIRER ATM TRANSACTION  0001HEAD OFFICE              AD0000000001000001907011358551907011358559109301622220000000/JOLLY GRANT BHANIAWALA      00
2874986070935005661045   00000000000000000090015020001001ACQUIRER ATM TRANSACTION  0001HEAD OFFICE              AD0000000000600001907011400021907011400029109301622220000000/JOLLY GRANT BHANIAWALA      00
2900946070936146110397   00000000000000000090015020001001ACQUIRER ATM TRANSACTION  0001HEAD OFFICE              AD0000000000500001907011403331907011403339109301622220000000/JOLLY GRANT BHANIAWALA      00
2925555597251236001092   00000000000000000090015020001001ACQUIRER ATM TRANSACTION  0001HEAD OFFICE              AD0000000001000001907011406591907011406599109301122220000000/NEHRU COLONY                00
2950414592000073362069   00000000000000000090015020001001ACQUIRER ATM TRANSACTION  0001HEAD OFFICE              AD0000000001000001907011410301907011410309109301322220000000/DCBLTD COURT2 COM.D.DU      00
2956546070936200373907   00000000000000000090015020001001ACQUIRER ATM TRANSACTION  0001HEAD OFFICE              AD0000000001500001907011411211907011411219109300422220000000/MAIN BAZAR VIKAS NAGAR      00
2981674357085018046856   00000000000000000090015020001001ACQUIRER ATM TRANSACTION  0001HEAD OFFICE              AD0000000000500001907011414581907011414589109301322220000000/DCBLTD COURT2 COM.D.DU      00
2990756070415006682332   00000000000000000090015020001001ACQUIRER ATM TRANSACTION  0001HEAD OFFICE              AD0000000000500001907011416191907011416199109301322220000000/DCBLTD COURT2 COM.D.DU      00
3001554591150305699845   00000000000000000090015020001001ACQUIRER ATM TRANSACTION  0001HEAD OFFICE              AD0000000000500001907011417451907011417459109301322220000000/DCBLTD COURT2 COM.D.DU      00
3008836070936048345646   00000000000000000090015020001001ACQUIRER ATM TRANSACTION  0001HEAD OFFICE              AC0000000003000001907011418521907011418529109300922220000000/                            00
3008836070936048345646   00000000000000000090015020001001ACQUIRER ATM TRANSACTION  0001HEAD OFFICE              AD0000000003000001907011418511907011418519109300922220000000/KALSI                       00
3024785596010117311132   00000000000000000090015020001001ACQUIRER ATM TRANSACTION  0001HEAD OFFICE              AD0000000009000001907011421031907011421039109301322220000000/DCBLTD COURT2 COM.D.DU      00
3042655264953619632847   00000000000000000090015020001001ACQUIRER ATM TRANSACTION  0001HEAD OFFICE              AD0000000000500001907011423451907011423459109300422220000000/MAIN BAZAR VIKAS NAGAR      00
3115554722540239078409   00000000000000000090015020001001ACQUIRER ATM TRANSACTION  0001HEAD OFFICE              AD0000000002000001907011434411907011434419109300522220000000/RISHIKESH                   00
3124706070936110626022   00000000000000000090015020001001ACQUIRER ATM TRANSACTION  0001HEAD OFFICE              AD0000000000500001907011436071907011436079109300422220000000/MAIN BAZAR VIKAS NAGAR      00
3130455126522024412133   00000000000000000090015020001001ACQUIRER ATM TRANSACTION  0001HEAD OFFICE              AD0000000001000001907011436581907011436589109301322220000000/DCBLTD COURT2 COM.D.DU      00
3219105596010097753071   00000000000000000090015020001001ACQUIRER ATM TRANSACTION  0001HEAD OFFICE              AD0000000000500001907011450291907011450299109301622220000000/JOLLY GRANT BHANIAWALA      00
3222236070936092759254   00000000000000000090015020001001ACQUIRER ATM TRANSACTION  0001HEAD OFFICE              AD0000000002000001907011451011907011451019109300422220000000/MAIN BAZAR VIKAS NAGAR      00
3227075596010097753071   00000000000000000090015020001001ACQUIRER ATM TRANSACTION  0001HEAD OFFICE              AD0000000000400001907011451471907011451479109301622220000000/JOLLY GRANT BHANIAWALA      00
3235286072929100942895   00000000000000000090015020001001ACQUIRER ATM TRANSACTION  0001HEAD OFFICE              AD0000000001000001907011453031907011453039109301022220000000/CHAKRATA ROAD               00
3245584591150069859346   00000000000000000090015020001001ACQUIRER ATM TRANSACTION  0001HEAD OFFICE              AD0000000001000001907011454341907011454349109301322220000000/DCBLTD COURT2 COM.D.DU      00
3290536521549991133813   00000000000000000090015020001001ACQUIRER ATM TRANSACTION  0001HEAD OFFICE              AD0000000000500001907011501301907011501309109301322220000000/DCBLTD COURT2 COM.D.DU      00
3317996522110500685048   00000000000000000090015020001001ACQUIRER ATM TRANSACTION  0001HEAD OFFICE              AD0000000009500001907011505471907011505479109300522220000000/RISHIKESH                   00
3323716069989743114158   00000000000000000090015020001001ACQUIRER ATM TRANSACTION  0001HEAD OFFICE              AD0000000002000001907011506481907011506489109300422220000000/MAIN BAZAR VIKAS NAGAR      00
3327036074310109011404   00000000000000000090015020001001ACQUIRER ATM TRANSACTION  0001HEAD OFFICE              AD0000000000500001907011507141907011507149109301322220000000/DCBLTD COURT2 COM.D.DU      00
3334296071371873002980   00000000000000000090015020001001ACQUIRER ATM TRANSACTION  0001HEAD OFFICE              AD0000000002000001907011508201907011508209109301322220000000/DCBLTD COURT2 COM.D.DU      00
3370065103720207969039   00000000000000000090015020001001ACQUIRER ATM TRANSACTION  0001HEAD OFFICE              AD0000000001000001907011513511907011513519109301022220000000/CHAKRATA ROAD               00
3374734591150298295924   00000000000000000090015020001001ACQUIRER ATM TRANSACTION  0001HEAD OFFICE              AD0000000001000001907011514321907011514329109301322220000000/DCBLTD COURT2 COM.D.DU      00
3377655103720455122539   00000000000000000090015020001001ACQUIRER ATM TRANSACTION  0001HEAD OFFICE              AD0000000000100001907011515041907011515049109301122220000000/NEHRU COLONY                00
3381256070936024279363   00000000000000000090015020001001ACQUIRER ATM TRANSACTION  0001HEAD OFFICE              AD0000000010000001907011515401907011515409109300422220000000/MAIN BAZAR VIKAS NAGAR      00
3392026070936024279363   00000000000000000090015020001001ACQUIRER ATM TRANSACTION  0001HEAD OFFICE              AD0000000007000001907011517211907011517219109300422220000000/MAIN BAZAR VIKAS NAGAR      00
3423744591150199743402   00000000000000000090015020001001ACQUIRER ATM TRANSACTION  0001HEAD OFFICE              AD0000000010000001907011522221907011522229109301322220000000/DCBLTD COURT2 COM.D.DU      00
3430724591150199743402   00000000000000000090015020001001ACQUIRER ATM TRANSACTION  0001HEAD OFFICE              AD0000000010000001907011523281907011523289109301322220000000/DCBLTD COURT2 COM.D.DU      00
343829622018078930005101600000000000000000090015020001001ACQUIRER ATM TRANSACTION  0001HEAD OFFICE              AD0000000010000001907011524401907011524409109301322220000000/DCBLTD COURT2 COM.D.DU      00
3463454712191508207980   00000000000000000090015020001001ACQUIRER ATM TRANSACTION  0001HEAD OFFICE              AD0000000002000001907011528311907011528319109301122220000000/NEHRU COLONY                00
3470774357085017657216   00000000000000000090015020001001ACQUIRER ATM TRANSACTION  0001HEAD OFFICE              AD0000000000500001907011529421907011529429109301622220000000/JOLLY GRANT BHANIAWALA      00
3473336070662795014983   00000000000000000090015020002001ACQUIRER MICRO ATM TRANSAC0001HEAD OFFICE              AD000000000300000190701153003190701153003M429385522220000000/MIYANWALA                   00
3482665089255315008089   00000000000000000090015020001001ACQUIRER ATM TRANSACTION  0001HEAD OFFICE              AD0000000000200001907011531291907011531299109301322220000000/DCBLTD COURT2 COM.D.DU      00
3502296070936146572927   00000000000000000090015020001001ACQUIRER ATM TRANSACTION  0001HEAD OFFICE              AD0000000002000001907011534351907011534359109300422220000000/MAIN BAZAR VIKAS NAGAR      00
3520514520556024005583   00000000000000000090015020001001ACQUIRER ATM TRANSACTION  0001HEAD OFFICE              AD0000000010000001907011537221907011537229109301322220000000/DCBLTD COURT2 COM.D.DU      00
3577736070936157336709   00000000000000000090015020001001ACQUIRER ATM TRANSACTION  0001HEAD OFFICE              AD0000000010000001907011546331907011546339109301322220000000/DCBLTD COURT2 COM.D.DU      00
3602365103720024125989   00000000000000000090015020001001ACQUIRER ATM TRANSACTION  0001HEAD OFFICE              AD0000000010000001907011550241907011550249109301322220000000/DCBLTD COURT2 COM.D.DU      00
3607865103720024125989   00000000000000000090015020001001ACQUIRER ATM TRANSACTION  0001HEAD OFFICE              AD0000000010000001907011551151907011551159109301322220000000/DCBLTD COURT2 COM.D.DU      00
3610826070936013321168   00000000000000000090015020001001ACQUIRER ATM TRANSACTION  0001HEAD OFFICE              AD0000000010000001907011551461907011551469109300422220000000/MAIN BAZAR VIKAS NAGAR      00
3614995175740003793204   00000000000000000090015020001001ACQUIRER ATM TRANSACTION  0001HEAD OFFICE              AD0000000008000001907011552231907011552239109300522220000000/RISHIKESH                   00
3652345103720183534195   00000000000000000090015020001001ACQUIRER ATM TRANSACTION  0001HEAD OFFICE              AD0000000010000001907011558141907011558149109300922220000000/KALSI                       00
3668615103720304368028   00000000000000000090015020001001ACQUIRER ATM TRANSACTION  0001HEAD OFFICE              AD0000000005000001907011600451907011600459109301322220000000/DCBLTD COURT2 COM.D.DU      00
3672086521600758636355   00000000000000000090015020001001ACQUIRER ATM TRANSACTION  0001HEAD OFFICE              AC0000000000500001907011601221907011601229109300622220000000/                            00
3672086521600758636355   00000000000000000090015020001001ACQUIRER ATM TRANSACTION  0001HEAD OFFICE              AD0000000000500001907011601211907011601219109300622220000000/RAIPUR                      00
3732346070936147826876   00000000000000000090015020001001ACQUIRER ATM TRANSACTION  0001HEAD OFFICE              AD0000000001000001907011610491907011610499109300922220000000/KALSI                       00
3741804018061630000101   00000000000000000090015020001001ACQUIRER ATM TRANSACTION  0001HEAD OFFICE              AD0000000002000001907011612201907011612209109301122220000000/NEHRU COLONY                00
3783125089252444007256   00000000000000000090015020001001ACQUIRER ATM TRANSACTION  0001HEAD OFFICE              AD0000000001000001907011618411907011618419109301322220000000/DCBLTD COURT2 COM.D.DU      00
3845045126522010676162   00000000000000000090015020001001ACQUIRER ATM TRANSACTION  0001HEAD OFFICE              AD0000000002000001907011628221907011628229109301322220000000/DCBLTD COURT2 COM.D.DU      00
3881046074310018566290   00000000000000000090015020001001ACQUIRER ATM TRANSACTION  0001HEAD OFFICE              AD0000000000500001907011633581907011633589109300922220000000/KALSI                       00
3886505103720431834827   00000000000000000090015020001001ACQUIRER ATM TRANSACTION  0001HEAD OFFICE              AD0000000003000001907011634491907011634499109301322220000000/DCBLTD COURT2 COM.D.DU      00
3898016070936170819517   00000000000000000090015020001001ACQUIRER ATM TRANSACTION  0001HEAD OFFICE              AD0000000002500001907011636311907011636319109301322220000000/DCBLTD COURT2 COM.D.DU      00
3905955103720490801758   00000000000000000090015020001001ACQUIRER ATM TRANSACTION  0001HEAD OFFICE              AD0000000005000001907011637421907011637429109301322220000000/DCBLTD COURT2 COM.D.DU      00
3916525129530100017020   00000000000000000090015020001001ACQUIRER ATM TRANSACTION  0001HEAD OFFICE              AD0000000001000001907011639231907011639239109301122220000000/NEHRU COLONY                00
3935626521600204566925   00000000000000000090015020001001ACQUIRER ATM TRANSACTION  0001HEAD OFFICE              AD0000000004000001907011642241907011642249109300522220000000/RISHIKESH                   00
3965626070936182606001   00000000000000000090015020001001ACQUIRER ATM TRANSACTION  0001HEAD OFFICE              AC0000000002000001907011649001907011649009109301022220000000/                            00
3965626070936182606001   00000000000000000090015020001001ACQUIRER ATM TRANSACTION  0001HEAD OFFICE              AD0000000002000001907011647051907011647059109301022220000000/CHAKRATA ROAD               00
3966135126522005336681   00000000000000000090015020001001ACQUIRER ATM TRANSACTION  0001HEAD OFFICE              AD0000000000200001907011647111907011647119109300522220000000/RISHIKESH                   00
3973864591150108144874   00000000000000000090015020001001ACQUIRER ATM TRANSACTION  0001HEAD OFFICE              AD0000000000200001907011648221907011648229109301122220000000/NEHRU COLONY                00
3977596070936070205502   00000000000000000090015020001001ACQUIRER ATM TRANSACTION  0001HEAD OFFICE              AD0000000000400001907011648591907011648599109301622220000000/JOLLY GRANT BHANIAWALA      00
3992675089252646004739   00000000000000000090015020001001ACQUIRER ATM TRANSACTION  0001HEAD OFFICE              AD0000000005000001907011651161907011651169109300522220000000/RISHIKESH                   00
3998826070936083961737   00000000000000000090015020001001ACQUIRER ATM TRANSACTION  0001HEAD OFFICE              AD0000000005000001907011652171907011652179109301022220000000/CHAKRATA ROAD               00
4060925085732196248897   00000000000000000090015020001001ACQUIRER ATM TRANSACTION  0001HEAD OFFICE              AD0000000001000001907011701581907011701589109300822220000000/DOIWALA                     00
4067605158756004937898   00000000000000000090015020001001ACQUIRER ATM TRANSACTION  0001HEAD OFFICE              AD0000000002000001907011702591907011702599109300422220000000/MAIN BAZAR VIKAS NAGAR      00
4075235158756004937898   00000000000000000090015020001001ACQUIRER ATM TRANSACTION  0001HEAD OFFICE              AD0000000005000001907011704111907011704119109300422220000000/MAIN BAZAR VIKAS NAGAR      00
4079525359850101345837   00000000000000000090015020001001ACQUIRER ATM TRANSACTION  0001HEAD OFFICE              AD0000000010000001907011704471907011704479109301322220000000/DCBLTD COURT2 COM.D.DU      00
4087395158756004937898   00000000000000000090015020001001ACQUIRER ATM TRANSACTION  0001HEAD OFFICE              AD0000000001000001907011705581907011705589109300422220000000/MAIN BAZAR VIKAS NAGAR      00
4142275103720379192170   00000000000000000090015020001001ACQUIRER ATM TRANSACTION  0001HEAD OFFICE              AD0000000002000001907011714091907011714099109300422220000000/MAIN BAZAR VIKAS NAGAR      00
416056622018084420009296400000000000000000090015020001001ACQUIRER ATM TRANSACTION  0001HEAD OFFICE              AC0000000000500001907011717271907011717279109301522220000000/                            00
416056622018084420009296400000000000000000090015020001001ACQUIRER ATM TRANSACTION  0001HEAD OFFICE              AD0000000000500001907011716451907011716459109301522220000000/NEAR HANUMAN RAIWALA        00
4205416521600274644669   00000000000000000090015020001001ACQUIRER ATM TRANSACTION  0001HEAD OFFICE              AD0000000005000001907011723131907011723139109301022220000000/CHAKRATA ROAD               00
4221664722540225027733   00000000000000000090015020001001ACQUIRER ATM TRANSACTION  0001HEAD OFFICE              AD0000000002000001907011725391907011725399109301122220000000/NEHRU COLONY                00
4238364591150139727770   00000000000000000090015020001001ACQUIRER ATM TRANSACTION  0001HEAD OFFICE              AD0000000003000001907011728051907011728059109300522220000000/RISHIKESH                   00
4243204987920104303654   00000000000000000090015020001001ACQUIRER ATM TRANSACTION  0001HEAD OFFICE              AD0000000004000001907011728511907011728519109301122220000000/NEHRU COLONY                00
4321824591150351223631   00000000000000000090015020001001ACQUIRER ATM TRANSACTION  0001HEAD OFFICE              AD0000000000400001907011740321907011740329109301122220000000/NEHRU COLONY                00
4359416521591462400511   00000000000000000090015020001001ACQUIRER ATM TRANSACTION  0001HEAD OFFICE              AD0000000001000001907011746091907011746099109300422220000000/MAIN BAZAR VIKAS NAGAR      00
4432414591150062898937   00000000000000000090015020001001ACQUIRER ATM TRANSACTION  0001HEAD OFFICE              AD0000000006000001907011756251907011756259109300522220000000/RISHIKESH                   00
4444856521515035765142   00000000000000000090015020001001ACQUIRER ATM TRANSACTION  0001HEAD OFFICE              AD0000000000200001907011758111907011758119109300522220000000/RISHIKESH                   00
4486056521515035765142   00000000000000000090015020001001ACQUIRER ATM TRANSACTION  0001HEAD OFFICE              AD0000000000200001907011803521907011803529109300522220000000/RISHIKESH                   00
4533906071977000799551   00000000000000000090015020001001ACQUIRER ATM TRANSACTION  0001HEAD OFFICE              AD0000000005000001907011810381907011810389109301022220000000/CHAKRATA ROAD               00
4602146070857501918168   00000000000000000090015020001001ACQUIRER ATM TRANSACTION  0001HEAD OFFICE              AD0000000006000001907011820301907011820309109300422220000000/MAIN BAZAR VIKAS NAGAR      00
4634066071970284010696   00000000000000000090015020001001ACQUIRER ATM TRANSACTION  0001HEAD OFFICE              AD0000000010000001907011824461907011824469109301022220000000/CHAKRATA ROAD               00
4649986071970284010696   00000000000000000090015020001001ACQUIRER ATM TRANSACTION  0001HEAD OFFICE              AD0000000005000001907011827021907011827029109301022220000000/CHAKRATA ROAD               00
4746306070936160244668   00000000000000000090015020001001ACQUIRER ATM TRANSACTION  0001HEAD OFFICE              AD0000000010000001907011840531907011840539109300522220000000/RISHIKESH                   00
4757196074310151388643   00000000000000000090015020001001ACQUIRER ATM TRANSACTION  0001HEAD OFFICE              AD0000000001000001907011842241907011842249109301122220000000/NEHRU COLONY                00
4788756070936200368287   00000000000000000090015020001001ACQUIRER ATM TRANSACTION  0001HEAD OFFICE              AD0000000005000001907011846511907011846519109300422220000000/MAIN BAZAR VIKAS NAGAR      00
4935196070936097377193   00000000000000000090015020001001ACQUIRER ATM TRANSACTION  0001HEAD OFFICE              AD0000000001000001907011907381907011907389109300422220000000/MAIN BAZAR VIKAS NAGAR      00
4951704592000110651938   00000000000000000090015020001001ACQUIRER ATM TRANSACTION  0001HEAD OFFICE              AD0000000003000001907011910041907011910049109300422220000000/MAIN BAZAR VIKAS NAGAR      00
5001095497772229778702   00000000000000000090015020001001ACQUIRER ATM TRANSACTION  0001HEAD OFFICE              AD0000000001500001907011917161907011917169109301122220000000/NEHRU COLONY                00
5029544592000020534323   00000000000000000090015020001001ACQUIRER ATM TRANSACTION  0001HEAD OFFICE              AD0000000002000001907011921171907011921179109301122220000000/NEHRU COLONY                00
5047026070936144561690   00000000000000000090015020001001ACQUIRER ATM TRANSACTION  0001HEAD OFFICE              AD0000000000500001907011923431907011923439109300522220000000/RISHIKESH                   00
5079966074310163484307   00000000000000000090015020001001ACQUIRER ATM TRANSACTION  0001HEAD OFFICE              AD0000000010000001907011928291907011928299109300522220000000/RISHIKESH                   00
5110625419190103138833   00000000000000000090015020001001ACQUIRER ATM TRANSACTION  0001HEAD OFFICE              AD0000000001200001907011933001907011933009109301122220000000/NEHRU COLONY                00
5227716070936128997910   00000000000000000090015020001001ACQUIRER ATM TRANSACTION  0001HEAD OFFICE              AD0000000000500001907011950331907011950339109300522220000000/RISHIKESH                   00
5272016070661793022006   00000000000000000090015020001001ACQUIRER ATM TRANSACTION  0001HEAD OFFICE              AD0000000001000001907011957291907011957299109300422220000000/MAIN BAZAR VIKAS NAGAR      00
5313584520553068019679   00000000000000000090015020001001ACQUIRER ATM TRANSACTION  0001HEAD OFFICE              AD0000000001500001907012004201907012004209109300422220000000/MAIN BAZAR VIKAS NAGAR      00
5392166522091507597933   00000000000000000090015020001001ACQUIRER ATM TRANSACTION  0001HEAD OFFICE              AD0000000000500001907012018091907012018099109300422220000000/MAIN BAZAR VIKAS NAGAR      00
5444506521831503435948   00000000000000000090015020001001ACQUIRER ATM TRANSACTION  0001HEAD OFFICE              AD0000000010000001907012027401907012027409109300422220000000/MAIN BAZAR VIKAS NAGAR      00
5473536070936048352972   00000000000000000090015020001001ACQUIRER ATM TRANSACTION  0001HEAD OFFICE              AD0000000002000001907012033361907012033369109300422220000000/MAIN BAZAR VIKAS NAGAR      00
5525684799320225004190   00000000000000000090015020001001ACQUIRER ATM TRANSACTION  0001HEAD OFFICE              AD0000000004000001907012044221907012044229109300422220000000/MAIN BAZAR VIKAS NAGAR      00
5545324321991873004331   00000000000000000090015020001001ACQUIRER ATM TRANSACTION  0001HEAD OFFICE              AD0000000003500001907012048441907012048449109301122220000000/NEHRU COLONY                00
5550246070936131066182   00000000000000000090015020001001ACQUIRER ATM TRANSACTION  0001HEAD OFFICE              AD0000000010000001907012049501907012049509109300422220000000/MAIN BAZAR VIKAS NAGAR      00
5554396070936131066182   00000000000000000090015020001001ACQUIRER ATM TRANSACTION  0001HEAD OFFICE              AD0000000010000001907012050511907012050519109300422220000000/MAIN BAZAR VIKAS NAGAR      00
5558604691970014425581   00000000000000000090015020001001ACQUIRER ATM TRANSACTION  0001HEAD OFFICE              AD0000000000500001907012051521907012051529109301122220000000/NEHRU COLONY                00
5573215264957813022218   00000000000000000090015020001001ACQUIRER ATM TRANSACTION  0001HEAD OFFICE              AD0000000002500001907012055281907012055289109300422220000000/MAIN BAZAR VIKAS NAGAR      00
